:060000000728FF3FFF3F4F
:06000600FF3F05288B01FD
:06000C0009008A110A122E
:06001200F62F1B20F70091
:0600180000308A007708A9
:06001E00003E031908007A
:06002400990098308400F1
:06002A00801C1528FC0FEC
:060030000A28FB0A0A2861
:060036007B088A007C0833
:06003C0082000800BD0176
:0600420030300002BF0097
:06004800093003182A280C
:06004E008A110A12542879
:060054003F08BD07031088
:06005A00BD0D0310BD0DF9
:060060000310BD0D3F0876
:06006600BD07BD07840A7E
:06006C0030300002BF006D
:060072000930031C5428B4
:060078003F08BD073D0832
:06007E00BF000310BD0DE0
:060084000310BD0D031086
:06008A00BD0D3F08BD079B
:06009000BD07840A3030B8
:060096000002BF0009306A
:06009C00031C54283F087C
:0600A200BD078401080007
:0600A800FF308400080097
:0600AE00C0018C1E582861
:0600B4001A08C100C100A2
:0600BA000D3C0319732840
:0600C00054080319410879
:0600C600990041080A3C0C
:0600CC0003195828423020
:0600D20040078400410814
:0600D8008000C00A400890
:0600DE000E3C031D582832
:0600E400572842304007DE
:0600EA0084008001080003
:0600F00099009830840025
:0600F600801C7B280800BD
:0600FC000408F7000008F3
:060102000319080078203B
:06010800F70A77088400ED
:06010E008028D200520E11
:060114000F39303E8000AF
:06011A0052080F39303ECF
:06012000840A80000800C3
:06012600F81F9E282D3099
:06012C00F000F809F909DA
:060132000130F90703187B
:06013800F80AA0282030A7
:06013E00F000F701A32808
:06014400F70A1030F90279
:06014A00760D283CF802CE
:060150000318A228770845
:06015600F1000A30F70081
:06015C00F703E830F9078B
:06016200760D033EF807D4
:06016800031CAE2877081D
:06016E00F200F70164300D
:06017400BC28F70AF902A5
:06017A000318BB28F80386
:06018000F81FBB28770800
:06018600F3000A30F7004F
:06018C00F703F907031C54
:06019200C6287708F40006
:060198007908F50030308B
:06019E00F107F207F30770
:0601A400F407F507080056
:0601AA003530550784000A
:0601B0000008F7002930F1
:0601B6005507840000085B
:0601BC000A3C031DE728C8
:0601C2007718E528063065
:0601C8000629093006299A
:0601CE000008063C031DC1
:0601D400F1287718EF2866
:0601DA00053006290A3081
:0601E00006290008053CA1
:0601E600031DFB28771841
:0601EC00F9280930062984
:0601F2000630062900089A
:0601F800093C031D05296E
:0601FE00771803290A3006
:0602040006290530062961
:06020A000A30800008002C
:060210000130FB0012307A
:06021600FC008A110A122F
:06021C000A2001308A00F7
:0602220017290D340A3417
:06022800243420340034F0
:06022E0057200D308A117B
:060234000A1278200A30D6
:06023A008A110A1278206F
:0602400001308A004D3080
:0602460042020319622CC4
:06024C00433042020319D9
:06025200A2295330420214
:060258000319B2294C302D
:06025E0042020319E7292A
:06026400483042020319BC
:06026A006D294430420240
:0602700003198A29563033
:0602760042020319962963
:06027C00423042020319AA
:06028200C12D3F304202D5
:0602880003191B2E423099
:06028E0084008A110A122F
:060294007E2001308A000B
:06029A000130FB005730AB
:0602A000FC008A110A12A5
:0602A6000A2001308A006D
:0602AC00082920342D3466
:0602B200203449346E34D3
:0602B800763461346C3461
:0602BE00693464342034B1
:0602C40043346F346D3479
:0602CA006D3461346E3456
:0602D000643421340D34FA
:0602D6000A340034303050
:0602DC004402BF00013CDA
:0602E200031C4629583000
:0602E8004302BE00023CCF
:0602EE00031C4629263026
:0602F40084003E088407AF
:0602FA003F088000281CF3
:0603000085012618852985
:060306000F3088052718E6
:06030C008929F03088058C
:060312000829303043020F
:06031800BF00013C031CC4
:06031E0046293F08B8006B
:060324000910381809144D
:06032A00082930304302F7
:06033000BF00013C031CAC
:0603360046293F08B90052
:06033C0089103918891434
:06034200082958304302B7
:06034800BE00023C031C94
:06034E0046290310BE0D5C
:060354002C3084003E087D
:06035A0084078001840A03
:060360008001082946306F
:0603660084008A110A1256
:06036C00202004184629C0
:0603720058304402BE00F9
:06037800023C031C4629B3
:06037E004308BF004930F6
:060384003F02031DC82921
:06038A0023308400CE299F
:0603900044303F02031D92
:060396004629203084001E
:06039C003E08840745083D
:0603A200BF003D303F02E8
:0603A800031DD9293D08E8
:0603AE00800008292B303D
:0603B4003F02031DE029D9
:0603BA003D088007082940
:0603C0002D303F02031D79
:0603C60046293D088002FB
:0603CC000829D5010330F1
:0603D20055020318AC2ADD
:0603D800583055078A11A0
:0603DE000A127820013034
:0603E4008A000130FB005D
:0603EA00FF30FC008A1147
:0603F0000A120A20013090
:0603F6008A008A110A12C0
:0603FC00112A20344134F7
:0604020078346934733404
:060408003A3420344C34AC
:06040E006F346334613419
:06041400743469346F34FA
:06041A006E343A34203478
:06042000003455088400C1
:060426000310840D2C30D0
:06042C0084070008F8003F
:06043200840A0008F90035
:060438008A110A12932054
:06043E00703084008A11F9
:060444000A127E200230C6
:06044A00FB003030FC0055
:060450008A110A120A20C5
:0604560002308A008A1149
:06045C000A123A2A2034C6
:060462002034443465342F
:060468006C3461347934AC
:06046E003A342034003492
:0604740020308400550851
:06047A008407F8010008F0
:06048000F9008A110A12C6
:06048600A0207330840089
:06048C008A110A127E2015
:060492000230FB005530B2
:06049800FC008A110A12AB
:06049E000A2002308A0072
:0604A4008A110A12682A09
:0604AA002034203453341D
:0604B00074346534703461
:0604B600733420347034A1
:0604BC00653472342034A7
:0604C20049346E3463347E
:0604C80068343A342034D0
:0604CE000034233084001D
:0604D40055088407F80141
:0604DA000008F9008A1180
:0604E0000A12A020733097
:0604E60084008A110A12D5
:0604EC007E200230FB003F
:0604F2008330FC008A11BA
:0604F8000A120A20023086
:0604FE008A008A110A12B7
:06050400972A2034203488
:06050A0048346F346C342C
:06051000643469346E340E
:0605160067342034433479
:06051C00753472347234E4
:0605220065346E347434F0
:060528003A3420340034D7
:06052E0026308400550890
:06053400840730300007CF
:06053A008A110A1278206C
:060540000D308A110A12C1
:0605460078200A308A1142
:06054C000A127820D50A16
:060552008A110A12E829DB
:060558000230FB00B6308A
:06055E00FC008A110A12E4
:060564000A2002308A00AB
:06056A00BD2A4434723486
:0605700069346C346C34A8
:060576003D34003430307A
:06057C0038078A110A1283
:0605820078200230FB00AE
:06058800CE30FC008A11D8
:06058E000A120A200230EF
:060594008A008A110A1220
:06059A00D82A0D340A34DA
:0605A0005634613463349F
:0605A600753475346D345C
:0605AC003D340034303044
:0605B20039078A110A124C
:0605B80078200230FB0078
:0605BE00E930FC008A1187
:0605C4000A120A200230B9
:0605CA008A008A110A12EA
:0605D000FA2A0D340A3482
:0605D6004C3469346D3461
:0605DC0069347434203480
:0605E20053347734693444
:0605E80074346334683432
:0605EE003A342034003411
:0605F40058308A110A12C2
:0605FA0078200330FB0035
:060600000A30FC008A1123
:060606000A120A20033075
:06060C008A008A110A12A7
:06061200152B2D346134AC
:06061800783469347334EC
:06061E0020346D34693444
:060624006E343D34003489
:06062A003030071C3130E6
:060630008A110A12782075
:060636000330FB00273039
:06063C00FC008A110A1205
:060642000A2003308A00CB
:060648008A110A122D2B9D
:06064E0020346D3461341C
:0606540078343D3400344F
:06065A003030871C313036
:060660008A110A12782045
:060666000230FB00E93048
:06066C00FC008A110A12D5
:060672000A2003308A009B
:0606780059308A110A123C
:06067E0078200330FB00B0
:060684000A30FC008A119F
:06068A000A120A200330F1
:060690008A003030071D56
:0606960031308A110A1246
:06069C0078200330FB0092
:0606A2002730FC008A1164
:0606A8000A120A200330D3
:0606AE008A003030871EB7
:0606B40031308A110A1228
:0606BA0078200230FB0075
:0606C000E930FC008A1184
:0606C6000A120A200330B5
:0606CC008A005A308A1179
:0606D2000A12782003303B
:0606D800FB000A30FC00EB
:0606DE008A110A120A2035
:0606E40003308A003030F3
:0606EA00051E31308A11EB
:0606F0000A12782003301D
:0606F600FB002730FC00B0
:0606FC008A110A120A2017
:0607020003308A003030D4
:06070800851E31308A114C
:06070E000A1278208A1196
:060714000A120829571427
:06071A000330FB009930E2
:06072000FC008A110A1220
:060726000A2003308A00E6
:06072C008A110A12182CCC
:06073200553473346534F8
:0607380020347434683423
:06073E006534203466342E
:060744006F346C346C34CC
:06074A006F3477346934BE
:060750006E346734203412
:060756006D346F347434B1
:06075C0069346F346E34B5
:0607620020346B34653405
:06076800793473343A34C9
:06076E000D340A340D34C5
:060774000A342034203499
:06077A00513428345A340A
:060780002B342934203463
:0607860020345734283432
:06078C0059342B3429341E
:060792000D340A3420348E
:0607980020344134283436
:06079E0058342D3429340B
:0607A40020342034533420
:0607AA00283453347434BE
:0607B0006F34703429349F
:0607B60020342034203441
:0607BC00443428345834D7
:0607C2002B3429340D3434
:0607C8000A342034203445
:0607CE005A3428345A34AD
:0607D4002D34293420340D
:0607DA00203458342834DD
:0607E00059342D342934C8
:0607E6000D340A340D344D
:0607EC000A34503472349F
:0607F2006534733473341A
:0607F80020343C34733490
:0607FE0070343E3420348B
:0608040074346F3420344F
:06080A0065347834693406
:06081000743420346D3445
:0608160061346E347534FC
:06081C0061346C3420344D
:060822006D346F346434F4
:0608280065340D340A34B2
:06082E000034981C1C2C94
:06083400181218168C1EBC
:06083A00182C1A08C10091
:06084000B201B301B40196
:06084600533041020319CA
:06084C00182C513041029E
:060852000319442C5A308A
:0608580041020319492CC6
:06085E00573041020319AE
:060864004E2C5830410249
:06086A000319532C41307C
:06087000410203195D2C9A
:06087600443041020319A9
:06087C00582C203041025F
:0608820003190829182CDF
:060888000030B700250856
:06088E00B400B62C01309D
:06089400B7002508B400C6
:06089A00B62C0030B60090
:0608A0002408B300B62C91
:0608A6000130B600240839
:0608AC00B300B62C003081
:0608B200B5002308B200AE
:0608B800B62C0130B50072
:0608BE002308B200B62C75
:0608C400B201B301B40112
:0608CA00B501B601B70103
:0608D000D7014E30430287
:0608D60003198C2B4530D4
:0608DC0084008A110A12DB
:0608E20020200418462945
:0608E80058304302BE007F
:0608EE00023C031C462938
:0608F40035303E078400D0
:0608FA004408BF002B3092
:060900003F02031D852CDF
:0609060080018B2C2D3056
:06090C003F02031D462915
:06091200013080003230CC
:060918003E0784003D08CB
:06091E008000C808031967
:06092400B62C4A308400ED
:06092A008A110A122020D0
:06093000041846295830AE
:060936004802BE00023C75
:06093C00031C46293530C2
:060942003E078400490895
:06094800BF002B303F024E
:06094E00031DAB2C80012B
:06095400B12C2D303F0222
:06095A00031D46290130D7
:06096000800032303E076A
:0609660084003D08800042
:06096C00320833020318FB
:06097200C12CFF30DC0087
:060978003308DB00320829
:06097E00DA00C62CDC01CA
:060984003208DB0033081D
:06098A00DA00D9015A0851
:06099000D8000310D80C92
:06099600BA01D601DD01EB
:06099C00DE01B208031D9C
:0609A200D52CB308031977
:0609A800EC2C0030F7000A
:0609AE005B08D802770887
:0609B400031C770FD902BD
:0609BA00D91BE42C5C08CF
:0609C000DD00DE00DE098F
:0609C600EC2C5A08D807D2
:0609CC000318D90AFF30F8
:0609D200DD00DE00EC2C4C
:0609D800DD080319082DE3
:0609DE00B2080319082D08
:0609E400B20356143518A1
:0609EA00FB2C0130AD07FB
:0609F0000318AC0AFF2C05
:0609F6000130AD02031CFC
:0609FC00AC030030D50041
:060A02008A110A12D52042
:060A080005308A00200801
:060A0E00BA005E080319A6
:060A1400282DB3080319B0
:060A1A00282DB303561461
:060A20003618172D01300D
:060A2600AF070318AE0A41
:060A2C001B2D0130AF029A
:060A3200031CAE030130BD
:060A3800D5008A110A122C
:060A3E00D52005308A00FE
:060A440021083A0203182C
:060A4A00282D2108BA006E
:060A500034080319452DD6
:060A5600B4035615371829
:060A5C00342D0130B1074A
:060A62000318B00A382D54
:060A68000130B102031C85
:060A6E00B0030230D500C8
:060A74008A110A12D520D0
:060A7A0005308A0022088D
:060A80003A020318452DA7
:060A86002208BA00D608A8
:060A8C000319BE2D561DEA
:060A92004C2D2B0885002D
:060A9800561C542D290834
:060A9E00BF00BF0E2A0894
:060AA4003F048800BA08BF
:060AAA000319622D5B251B
:060AB000BA0B572D622D68
:060AB600C830BB00000087
:060ABC000000BB0B5D2DE4
:060AC2000800281C85015C
:060AC8002618682D0F3016
:060ACE0088052718972D92
:060AD400F03088058C1EC5
:060ADA00972D57181E2C99
:060AE0001A08C1000530F8
:060AE600FB007E30FC0065
:060AEC008A110A120A2023
:060AF20005308A008A11A4
:060AF8000A12BE2D0D34B0
:060AFE000A3453344534B4
:060B040052344934413473
:060B0A004C34203452348B
:060B100045344334453476
:060B160049345634453459
:060B1C0020344134423494
:060B22004F34523454343C
:060B28000D340A34003414
:060B2E00071CA42D871C2A
:060B3400A42D071DA42DF5
:060B3A00871EA42D051E1C
:060B4000A42D851EA42D6A
:060B4600CB2C0530FB0082
:060B4C00AE30FC008A112E
:060B52000A120A20053022
:060B58008A00BE2D0D34E1
:060B5E000A344C34493456
:060B64004D344934543405
:060B6A0020344534523432
:060B700052344F345234F0
:060B76000D340A340034C6
:060B7C005718182C08298F
:060B82000930F7008312A8
:060B8800031726308D006A
:060B8E00203084008B13EF
:060B9400831203130008A8
:060B9A00831203178C001A
:060BA000831203130D1285
:060BA600831603178C13F7
:060BAC000C1555308D0010
:060BB200AA308D008C1436
:060BB8000C11831203136F
:060BBE000D1EDF2D840A6C
:060BC400831203178D0AE5
:060BCA00F70BCA2D831297
:060BD00003130829423066
:060BD60084008A110A12DE
:060BDC007E200530FB0045
:060BE200F930FC008A114D
:060BE8000A120A2005308C
:060BEE008A001B2E2034DA
:060BF4002D3420344334CF
:060BFA006F346D346D3410
:060C000061346E3464341F
:060C060020346E346F344F
:060C0C0074342034693449
:060C12006D3470346C34F7
:060C180065346D34653403
:060C1E006E3474346534ED
:060C240064342034793431
:060C2A006534743421342E
:060C30000D340A3400340B
:060C36000630FB00273030
:060C3C00FC008A110A12FF
:060C42000A2006308A00C2
:060C48008A110A120829BE
:060C4E0043346F346D34E5
:060C54006D3461346E34C2
:060C5A00643473343A34E7
:060C60000D340A342034BB
:060C66004D344E343C3415
:060C6C00633472343E34D3
:060C720020343D34203463
:060C78004D3461346E34BE
:060C7E00753461346C3492
:060C8400203443346F34FC
:060C8A006E347434723474
:060C90006F346C340D34DA
:060C96000A3420344D3445
:060C9C0078342B346E34A5
:060CA2006E346E345B3479
:060CA80079342B346D3499
:060CAE006D346D345D346D
:060CB4003C34633472348D
:060CBA003E3420343D34FD
:060CC00020344D346F34B6
:060CC60076346534203491
:060CCC0061347834693444
:060CD20073342034783475
:060CD80020342B342F3400
:060CDE002D3420346E34B9
:060CE4006E346E34203472
:060CEA007334743465341C
:060CF000703473340D3472
:060CF6000A3420344334EF
:060CFC0078343C3463343F
:060D020072343E3420347F
:060D08003D3420344334A9
:060D0E0061346C3469340D
:060D140062347234613408
:060D1A007434653420343E
:060D2000613478346934EF
:060D260073342034783420
:060D2C002034283472346B
:060D3200653473346534E2
:060D380074342034743411
:060D3E006F342034303454
:060D440029340D340A34CD
:060D4A0020345334443450
:060D500078342B346E34F0
:060D56006E346E343C34E3
:060D5C00633472343E34E2
:060D620020343D34203472
:060D6800533465347434BD
:060D6E002034443465341A
:060D74006C346134793497
:060D7A00203466346F34E2
:060D8000723420346134DE
:060D860078346934733477
:060D8C002034783420340D
:060D92002B342F342D3438
:060D98002F343D3420342D
:060D9E006E346E346E3469
:060DA400203464346534C4
:060DAA006C346134793461
:060DB0000D340A3420346A
:060DB60053344934783487
:060DBC003D346E346E347C
:060DC2006E343C34633482
:060DC80072343E342034B9
:060DCE003D3420345334D3
:060DD40065347434203484
:060DDA0049346E3463345D
:060DE00068342034733476
:060DE60069347A34653423
:060DEC0020346F346E3468
:060DF20020346134783466
:060DF8006934733420345D
:060DFE0078342034743447
:060E04006F3420346E344F
:060E0A006E346E3420344A
:060E1000733474346534F4
:060E1600703473340D344A
:060E1C000A3420344C34BE
:060E22003C34633472341D
:060E28003E3420343D348D
:060E2E0020344C3469344D
:060E3400733474347334C2
:060E3A002034633475341E
:060E4000723472346534C7
:060E46006E347434203408
:060E4C00733465347434B8
:060E5200743469346E34B3
:060E5800673473342034FE
:060E5E0061346E346434BF
:060E640020346C346F34F1
:060E6A00633461347434AE
:060E700069346F346E349A
:060E76000D340A342034A3
:060E7C00483478343034E4
:060E820020343D34203451
:060E880048346F346C34A5
:060E8E00643469346E3487
:060E9400673420346334D2
:060E9A007534723472345D
:060EA00065346E34743469
:060EA600203466346F34B5
:060EAC00723420346134B1
:060EB2007834693473344A
:060EB800203478342034E0
:060EBE004F346634663477
:060EC40020342834303414
:060ECA00293420346F34CE
:060ED000723420344F349F
:060ED6006E3420342834C4
:060EDC00313429340D340D
:060EE2000A342034443400
:060EE80030343C34633499
:060EEE0072343E34203492
:060EF4003D3420344434BB
:060EFA00723469346C340F
:060F00006C3420344F3474
:060F06006634663420345D
:060F0C00283430342934C2
:060F120020346F3472343C
:060F180020344F346E345A
:060F1E00203428343134B8
:060F240029340D340A34EB
:060F2A002034563430347F
:060F30003C34633472340E
:060F36003E3420343D347E
:060F3C002034563461343C
:060F4200633475347534C0
:060F48006D3420344F342B
:060F4E0066346634203415
:060F54002834303429347A
:060F5A0020346F347234F4
:060F600020344F346E3412
:060F660020342834313470
:060F6C0029340D340A34A3
:060F7200203442343C343F
:060F7800633472343E34C4
:060F7E0020343D34203454
:060F8400423461346334C5
:060F8A006B347534703475
:060F9000203473347434B8
:060F960061347234743472
:060F9C00753470342034AE
:060FA20063346F346E346D
:060FA80066346934673471
:060FAE000D340A3420346A
:060FB4003F343C346334BD
:060FBA0072343E342034C5
:060FC0003D3420344434EE
:060FC60075346D34703437
:060FCC0020347434683487
:060FD20069347334203481
:060FD8006D346534733432
:060FDE0073346134673436
:060FE40065340D340A34EF
:060FEA000034F60183163D
:060FF000031380308100B4
:060FF60030308500FF30E1
:060FFC008600FF308700B3
:06100200003088000430FC
:0610080089008C018D013E
:06100E0006309F00831272
:0610140003138B018C01A7
:06101A008D019F0185011C
:0610200086018701880132
:061026008901831203138F
:06102C007F308400083053
:061032008A008001840326
:061038000408203C031D2A
:06103E001A280930F7003A
:06104400831203172630A1
:06104A008D00203084003F
:06105000831603178C1348
:061056000C1483120317C5
:06105C000C088000840A6C
:061062008D0AF70B28289F
:061068008316031398013A
:06106E0018159816831608
:0610740003130C3099008B
:06107A0083120313981716
:0610800018168312031391
:061086000830FB004F30B2
:06108C00FC008A110A12AB
:061092000A2008308A006C
:061098008A110A1208296A
:06109E000D340A34563443
:0610A40069346E34633470
:0610AA00653427347334A5
:0610B000203443344E34ED
:0610B600433420344D34E8
:0610BC0049344C344C34B1
:0610C200203456343134E5
:0610C8002E3430340D341B
:0610CE000A340034FF3F6C
:0610D400FF3FFF3FFF3F5C
:0610DA00FF3FFF3FFF3F56
:0610E000FF3FFF3FFF3F50
:0610E600FF3FFF3FFF3F4A
:0610EC00FF3FFF3FFF3F44
:0610F200FF3FFF3FFF3F3E
:0610F800FF3FFF3FFF3F38
:0610FE00FF3FFF3FFF3F32
:06110400FF3FFF3FFF3F2B
:06110A00FF3FFF3FFF3F25
:06111000FF3FFF3FFF3F1F
:06111600FF3FFF3FFF3F19
:06111C00FF3FFF3FFF3F13
:06112200FF3FFF3FFF3F0D
:06112800FF3FFF3FFF3F07
:06112E00FF3FFF3FFF3F01
:06113400FF3FFF3FFF3FFB
:06113A00FF3FFF3FFF3FF5
:06114000FF3FFF3FFF3FEF
:06114600FF3FFF3FFF3FE9
:06114C00FF3FFF3FFF3FE3
:06115200FF3FFF3FFF3FDD
:06115800FF3FFF3FFF3FD7
:06115E00FF3FFF3FFF3FD1
:06116400FF3FFF3FFF3FCB
:06116A00FF3FFF3FFF3FC5
:06117000FF3FFF3FFF3FBF
:06117600FF3FFF3FFF3FB9
:06117C00FF3FFF3FFF3FB3
:06118200FF3FFF3FFF3FAD
:06118800FF3FFF3FFF3FA7
:06118E00FF3FFF3FFF3FA1
:06119400FF3FFF3FFF3F9B
:06119A00FF3FFF3FFF3F95
:0611A000FF3FFF3FFF3F8F
:0611A600FF3FFF3FFF3F89
:0611AC00FF3FFF3FFF3F83
:0611B200FF3FFF3FFF3F7D
:0611B800FF3FFF3FFF3F77
:0611BE00FF3FFF3FFF3F71
:0611C400FF3FFF3FFF3F6B
:0611CA00FF3FFF3FFF3F65
:0611D000FF3FFF3FFF3F5F
:0611D600FF3FFF3FFF3F59
:0611DC00FF3FFF3FFF3F53
:0611E200FF3FFF3FFF3F4D
:0611E800FF3FFF3FFF3F47
:0611EE00FF3FFF3FFF3F41
:0611F400FF3FFF3FFF3F3B
:0611FA00FF3FFF3FFF3F35
:06120000FF3FFF3FFF3F2E
:06120600FF3FFF3FFF3F28
:06120C00FF3FFF3FFF3F22
:06121200FF3FFF3FFF3F1C
:06121800FF3FFF3FFF3F16
:06121E00FF3FFF3FFF3F10
:06122400FF3FFF3FFF3F0A
:06122A00FF3FFF3FFF3F04
:06123000FF3FFF3FFF3FFE
:06123600FF3FFF3FFF3FF8
:06123C00FF3FFF3FFF3FF2
:06124200FF3FFF3FFF3FEC
:06124800FF3FFF3FFF3FE6
:06124E00FF3FFF3FFF3FE0
:06125400FF3FFF3FFF3FDA
:06125A00FF3FFF3FFF3FD4
:06126000FF3FFF3FFF3FCE
:06126600FF3FFF3FFF3FC8
:06126C00FF3FFF3FFF3FC2
:06127200FF3FFF3FFF3FBC
:06127800FF3FFF3FFF3FB6
:06127E00FF3FFF3FFF3FB0
:06128400FF3FFF3FFF3FAA
:06128A00FF3FFF3FFF3FA4
:06129000FF3FFF3FFF3F9E
:06129600FF3FFF3FFF3F98
:06129C00FF3FFF3FFF3F92
:0612A200FF3FFF3FFF3F8C
:0612A800FF3FFF3FFF3F86
:0612AE00FF3FFF3FFF3F80
:0612B400FF3FFF3FFF3F7A
:0612BA00FF3FFF3FFF3F74
:0612C000FF3FFF3FFF3F6E
:0612C600FF3FFF3FFF3F68
:0612CC00FF3FFF3FFF3F62
:0612D200FF3FFF3FFF3F5C
:0612D800FF3FFF3FFF3F56
:0612DE00FF3FFF3FFF3F50
:0612E400FF3FFF3FFF3F4A
:0612EA00FF3FFF3FFF3F44
:0612F000FF3FFF3FFF3F3E
:0612F600FF3FFF3FFF3F38
:0612FC00FF3FFF3FFF3F32
:06130200FF3FFF3FFF3F2B
:06130800FF3FFF3FFF3F25
:06130E00FF3FFF3FFF3F1F
:06131400FF3FFF3FFF3F19
:06131A00FF3FFF3FFF3F13
:06132000FF3FFF3FFF3F0D
:06132600FF3FFF3FFF3F07
:06132C00FF3FFF3FFF3F01
:06133200FF3FFF3FFF3FFB
:06133800FF3FFF3FFF3FF5
:06133E00FF3FFF3FFF3FEF
:06134400FF3FFF3FFF3FE9
:06134A00FF3FFF3FFF3FE3
:06135000FF3FFF3FFF3FDD
:06135600FF3FFF3FFF3FD7
:06135C00FF3FFF3FFF3FD1
:06136200FF3FFF3FFF3FCB
:06136800FF3FFF3FFF3FC5
:06136E00FF3FFF3FFF3FBF
:06137400FF3FFF3FFF3FB9
:06137A00FF3FFF3FFF3FB3
:06138000FF3FFF3FFF3FAD
:06138600FF3FFF3FFF3FA7
:06138C00FF3FFF3FFF3FA1
:06139200FF3FFF3FFF3F9B
:06139800FF3FFF3FFF3F95
:06139E00FF3FFF3FFF3F8F
:0613A400FF3FFF3FFF3F89
:0613AA00FF3FFF3FFF3F83
:0613B000FF3FFF3FFF3F7D
:0613B600FF3FFF3FFF3F77
:0613BC00FF3FFF3FFF3F71
:0613C200FF3FFF3FFF3F6B
:0613C800FF3FFF3FFF3F65
:0613CE00FF3FFF3FFF3F5F
:0613D400FF3FFF3FFF3F59
:0613DA00FF3FFF3FFF3F53
:0613E000FF3FFF3FFF3F4D
:0613E600FF3FFF3FFF3F47
:0613EC00FF3FFF3FFF3F41
:0613F200FF3FFF3FFF3F3B
:0613F800FF3FFF3FFF3F35
:0613FE00FF3FFF3FFF3F2F
:06140400FF3FFF3FFF3F28
:06140A00FF3FFF3FFF3F22
:06141000FF3FFF3FFF3F1C
:06141600FF3FFF3FFF3F16
:06141C00FF3FFF3FFF3F10
:06142200FF3FFF3FFF3F0A
:06142800FF3FFF3FFF3F04
:06142E00FF3FFF3FFF3FFE
:06143400FF3FFF3FFF3FF8
:06143A00FF3FFF3FFF3FF2
:06144000FF3FFF3FFF3FEC
:06144600FF3FFF3FFF3FE6
:06144C00FF3FFF3FFF3FE0
:06145200FF3FFF3FFF3FDA
:06145800FF3FFF3FFF3FD4
:06145E00FF3FFF3FFF3FCE
:06146400FF3FFF3FFF3FC8
:06146A00FF3FFF3FFF3FC2
:06147000FF3FFF3FFF3FBC
:06147600FF3FFF3FFF3FB6
:06147C00FF3FFF3FFF3FB0
:06148200FF3FFF3FFF3FAA
:06148800FF3FFF3FFF3FA4
:06148E00FF3FFF3FFF3F9E
:06149400FF3FFF3FFF3F98
:06149A00FF3FFF3FFF3F92
:0614A000FF3FFF3FFF3F8C
:0614A600FF3FFF3FFF3F86
:0614AC00FF3FFF3FFF3F80
:0614B200FF3FFF3FFF3F7A
:0614B800FF3FFF3FFF3F74
:0614BE00FF3FFF3FFF3F6E
:0614C400FF3FFF3FFF3F68
:0614CA00FF3FFF3FFF3F62
:0614D000FF3FFF3FFF3F5C
:0614D600FF3FFF3FFF3F56
:0614DC00FF3FFF3FFF3F50
:0614E200FF3FFF3FFF3F4A
:0614E800FF3FFF3FFF3F44
:0614EE00FF3FFF3FFF3F3E
:0614F400FF3FFF3FFF3F38
:0614FA00FF3FFF3FFF3F32
:06150000FF3FFF3FFF3F2B
:06150600FF3FFF3FFF3F25
:06150C00FF3FFF3FFF3F1F
:06151200FF3FFF3FFF3F19
:06151800FF3FFF3FFF3F13
:06151E00FF3FFF3FFF3F0D
:06152400FF3FFF3FFF3F07
:06152A00FF3FFF3FFF3F01
:06153000FF3FFF3FFF3FFB
:06153600FF3FFF3FFF3FF5
:06153C00FF3FFF3FFF3FEF
:06154200FF3FFF3FFF3FE9
:06154800FF3FFF3FFF3FE3
:06154E00FF3FFF3FFF3FDD
:06155400FF3FFF3FFF3FD7
:06155A00FF3FFF3FFF3FD1
:06156000FF3FFF3FFF3FCB
:06156600FF3FFF3FFF3FC5
:06156C00FF3FFF3FFF3FBF
:06157200FF3FFF3FFF3FB9
:06157800FF3FFF3FFF3FB3
:06157E00FF3FFF3FFF3FAD
:06158400FF3FFF3FFF3FA7
:06158A00FF3FFF3FFF3FA1
:06159000FF3FFF3FFF3F9B
:06159600FF3FFF3FFF3F95
:06159C00FF3FFF3FFF3F8F
:0615A200FF3FFF3FFF3F89
:0615A800FF3FFF3FFF3F83
:0615AE00FF3FFF3FFF3F7D
:0615B400FF3FFF3FFF3F77
:0615BA00FF3FFF3FFF3F71
:0615C000FF3FFF3FFF3F6B
:0615C600FF3FFF3FFF3F65
:0615CC00FF3FFF3FFF3F5F
:0615D200FF3FFF3FFF3F59
:0615D800FF3FFF3FFF3F53
:0615DE00FF3FFF3FFF3F4D
:0615E400FF3FFF3FFF3F47
:0615EA00FF3FFF3FFF3F41
:0615F000FF3FFF3FFF3F3B
:0615F600FF3FFF3FFF3F35
:0615FC00FF3FFF3FFF3F2F
:06160200FF3FFF3FFF3F28
:06160800FF3FFF3FFF3F22
:06160E00FF3FFF3FFF3F1C
:06161400FF3FFF3FFF3F16
:06161A00FF3FFF3FFF3F10
:06162000FF3FFF3FFF3F0A
:06162600FF3FFF3FFF3F04
:06162C00FF3FFF3FFF3FFE
:06163200FF3FFF3FFF3FF8
:06163800FF3FFF3FFF3FF2
:06163E00FF3FFF3FFF3FEC
:06164400FF3FFF3FFF3FE6
:06164A00FF3FFF3FFF3FE0
:06165000FF3FFF3FFF3FDA
:06165600FF3FFF3FFF3FD4
:06165C00FF3FFF3FFF3FCE
:06166200FF3FFF3FFF3FC8
:06166800FF3FFF3FFF3FC2
:06166E00FF3FFF3FFF3FBC
:06167400FF3FFF3FFF3FB6
:06167A00FF3FFF3FFF3FB0
:06168000FF3FFF3FFF3FAA
:06168600FF3FFF3FFF3FA4
:06168C00FF3FFF3FFF3F9E
:06169200FF3FFF3FFF3F98
:06169800FF3FFF3FFF3F92
:06169E00FF3FFF3FFF3F8C
:0616A400FF3FFF3FFF3F86
:0616AA00FF3FFF3FFF3F80
:0616B000FF3FFF3FFF3F7A
:0616B600FF3FFF3FFF3F74
:0616BC00FF3FFF3FFF3F6E
:0616C200FF3FFF3FFF3F68
:0616C800FF3FFF3FFF3F62
:0616CE00FF3FFF3FFF3F5C
:0616D400FF3FFF3FFF3F56
:0616DA00FF3FFF3FFF3F50
:0616E000FF3FFF3FFF3F4A
:0616E600FF3FFF3FFF3F44
:0616EC00FF3FFF3FFF3F3E
:0616F200FF3FFF3FFF3F38
:0616F800FF3FFF3FFF3F32
:0616FE00FF3FFF3FFF3F2C
:06170400FF3FFF3FFF3F25
:06170A00FF3FFF3FFF3F1F
:06171000FF3FFF3FFF3F19
:06171600FF3FFF3FFF3F13
:06171C00FF3FFF3FFF3F0D
:06172200FF3FFF3FFF3F07
:06172800FF3FFF3FFF3F01
:06172E00FF3FFF3FFF3FFB
:06173400FF3FFF3FFF3FF5
:06173A00FF3FFF3FFF3FEF
:06174000FF3FFF3FFF3FE9
:06174600FF3FFF3FFF3FE3
:06174C00FF3FFF3FFF3FDD
:06175200FF3FFF3FFF3FD7
:06175800FF3FFF3FFF3FD1
:06175E00FF3FFF3FFF3FCB
:06176400FF3FFF3FFF3FC5
:06176A00FF3FFF3FFF3FBF
:06177000FF3FFF3FFF3FB9
:06177600FF3FFF3FFF3FB3
:06177C00FF3FFF3FFF3FAD
:06178200FF3FFF3FFF3FA7
:06178800FF3FFF3FFF3FA1
:06178E00FF3FFF3FFF3F9B
:06179400FF3FFF3FFF3F95
:06179A00FF3FFF3FFF3F8F
:0617A000FF3FFF3FFF3F89
:0617A600FF3FFF3FFF3F83
:0617AC00FF3FFF3FFF3F7D
:0617B200FF3FFF3FFF3F77
:0617B800FF3FFF3FFF3F71
:0617BE00FF3FFF3FFF3F6B
:0617C400FF3FFF3FFF3F65
:0617CA00FF3FFF3FFF3F5F
:0617D000FF3FFF3FFF3F59
:0617D600FF3FFF3FFF3F53
:0617DC00FF3FFF3FFF3F4D
:0617E200FF3FFF3FFF3F47
:0617E800FF3FFF3FFF3F41
:0617EE00FF3FFF3FFF3F3B
:0617F400FF3FFF3FFF3F35
:0617FA00FF3FFF3FFF3F2F
:06180000FF3FFF3FFF3F28
:06180600FF3FFF3FFF3F22
:06180C00FF3FFF3FFF3F1C
:06181200FF3FFF3FFF3F16
:06181800FF3FFF3FFF3F10
:06181E00FF3FFF3FFF3F0A
:06182400FF3FFF3FFF3F04
:06182A00FF3FFF3FFF3FFE
:06183000FF3FFF3FFF3FF8
:06183600FF3FFF3FFF3FF2
:06183C00FF3FFF3FFF3FEC
:06184200FF3FFF3FFF3FE6
:06184800FF3FFF3FFF3FE0
:06184E00FF3FFF3FFF3FDA
:06185400FF3FFF3FFF3FD4
:06185A00FF3FFF3FFF3FCE
:06186000FF3FFF3FFF3FC8
:06186600FF3FFF3FFF3FC2
:06186C00FF3FFF3FFF3FBC
:06187200FF3FFF3FFF3FB6
:06187800FF3FFF3FFF3FB0
:06187E00FF3FFF3FFF3FAA
:06188400FF3FFF3FFF3FA4
:06188A00FF3FFF3FFF3F9E
:06189000FF3FFF3FFF3F98
:06189600FF3FFF3FFF3F92
:06189C00FF3FFF3FFF3F8C
:0618A200FF3FFF3FFF3F86
:0618A800FF3FFF3FFF3F80
:0618AE00FF3FFF3FFF3F7A
:0618B400FF3FFF3FFF3F74
:0618BA00FF3FFF3FFF3F6E
:0618C000FF3FFF3FFF3F68
:0618C600FF3FFF3FFF3F62
:0618CC00FF3FFF3FFF3F5C
:0618D200FF3FFF3FFF3F56
:0618D800FF3FFF3FFF3F50
:0618DE00FF3FFF3FFF3F4A
:0618E400FF3FFF3FFF3F44
:0618EA00FF3FFF3FFF3F3E
:0618F000FF3FFF3FFF3F38
:0618F600FF3FFF3FFF3F32
:0618FC00FF3FFF3FFF3F2C
:06190200FF3FFF3FFF3F25
:06190800FF3FFF3FFF3F1F
:06190E00FF3FFF3FFF3F19
:06191400FF3FFF3FFF3F13
:06191A00FF3FFF3FFF3F0D
:06192000FF3FFF3FFF3F07
:06192600FF3FFF3FFF3F01
:06192C00FF3FFF3FFF3FFB
:06193200FF3FFF3FFF3FF5
:06193800FF3FFF3FFF3FEF
:06193E00FF3FFF3FFF3FE9
:06194400FF3FFF3FFF3FE3
:06194A00FF3FFF3FFF3FDD
:06195000FF3FFF3FFF3FD7
:06195600FF3FFF3FFF3FD1
:06195C00FF3FFF3FFF3FCB
:06196200FF3FFF3FFF3FC5
:06196800FF3FFF3FFF3FBF
:06196E00FF3FFF3FFF3FB9
:06197400FF3FFF3FFF3FB3
:06197A00FF3FFF3FFF3FAD
:06198000FF3FFF3FFF3FA7
:06198600FF3FFF3FFF3FA1
:06198C00FF3FFF3FFF3F9B
:06199200FF3FFF3FFF3F95
:06199800FF3FFF3FFF3F8F
:06199E00FF3FFF3FFF3F89
:0619A400FF3FFF3FFF3F83
:0619AA00FF3FFF3FFF3F7D
:0619B000FF3FFF3FFF3F77
:0619B600FF3FFF3FFF3F71
:0619BC00FF3FFF3FFF3F6B
:0619C200FF3FFF3FFF3F65
:0619C800FF3FFF3FFF3F5F
:0619CE00FF3FFF3FFF3F59
:0619D400FF3FFF3FFF3F53
:0619DA00FF3FFF3FFF3F4D
:0619E000FF3FFF3FFF3F47
:0619E600FF3FFF3FFF3F41
:0619EC00FF3FFF3FFF3F3B
:0619F200FF3FFF3FFF3F35
:0619F800FF3FFF3FFF3F2F
:0619FE00FF3FFF3FFF3F29
:061A0400FF3FFF3FFF3F22
:061A0A00FF3FFF3FFF3F1C
:061A1000FF3FFF3FFF3F16
:061A1600FF3FFF3FFF3F10
:061A1C00FF3FFF3FFF3F0A
:061A2200FF3FFF3FFF3F04
:061A2800FF3FFF3FFF3FFE
:061A2E00FF3FFF3FFF3FF8
:061A3400FF3FFF3FFF3FF2
:061A3A00FF3FFF3FFF3FEC
:061A4000FF3FFF3FFF3FE6
:061A4600FF3FFF3FFF3FE0
:061A4C00FF3FFF3FFF3FDA
:061A5200FF3FFF3FFF3FD4
:061A5800FF3FFF3FFF3FCE
:061A5E00FF3FFF3FFF3FC8
:061A6400FF3FFF3FFF3FC2
:061A6A00FF3FFF3FFF3FBC
:061A7000FF3FFF3FFF3FB6
:061A7600FF3FFF3FFF3FB0
:061A7C00FF3FFF3FFF3FAA
:061A8200FF3FFF3FFF3FA4
:061A8800FF3FFF3FFF3F9E
:061A8E00FF3FFF3FFF3F98
:061A9400FF3FFF3FFF3F92
:061A9A00FF3FFF3FFF3F8C
:061AA000FF3FFF3FFF3F86
:061AA600FF3FFF3FFF3F80
:061AAC00FF3FFF3FFF3F7A
:061AB200FF3FFF3FFF3F74
:061AB800FF3FFF3FFF3F6E
:061ABE00FF3FFF3FFF3F68
:061AC400FF3FFF3FFF3F62
:061ACA00FF3FFF3FFF3F5C
:061AD000FF3FFF3FFF3F56
:061AD600FF3FFF3FFF3F50
:061ADC00FF3FFF3FFF3F4A
:061AE200FF3FFF3FFF3F44
:061AE800FF3FFF3FFF3F3E
:061AEE00FF3FFF3FFF3F38
:061AF400FF3FFF3FFF3F32
:061AFA00FF3FFF3FFF3F2C
:061B0000FF3FFF3FFF3F25
:061B0600FF3FFF3FFF3F1F
:061B0C00FF3FFF3FFF3F19
:061B1200FF3FFF3FFF3F13
:061B1800FF3FFF3FFF3F0D
:061B1E00FF3FFF3FFF3F07
:061B2400FF3FFF3FFF3F01
:061B2A00FF3FFF3FFF3FFB
:061B3000FF3FFF3FFF3FF5
:061B3600FF3FFF3FFF3FEF
:061B3C00FF3FFF3FFF3FE9
:061B4200FF3FFF3FFF3FE3
:061B4800FF3FFF3FFF3FDD
:061B4E00FF3FFF3FFF3FD7
:061B5400FF3FFF3FFF3FD1
:061B5A00FF3FFF3FFF3FCB
:061B6000FF3FFF3FFF3FC5
:061B6600FF3FFF3FFF3FBF
:061B6C00FF3FFF3FFF3FB9
:061B7200FF3FFF3FFF3FB3
:061B7800FF3FFF3FFF3FAD
:061B7E00FF3FFF3FFF3FA7
:061B8400FF3FFF3FFF3FA1
:061B8A00FF3FFF3FFF3F9B
:061B9000FF3FFF3FFF3F95
:061B9600FF3FFF3FFF3F8F
:061B9C00FF3FFF3FFF3F89
:061BA200FF3FFF3FFF3F83
:061BA800FF3FFF3FFF3F7D
:061BAE00FF3FFF3FFF3F77
:061BB400FF3FFF3FFF3F71
:061BBA00FF3FFF3FFF3F6B
:061BC000FF3FFF3FFF3F65
:061BC600FF3FFF3FFF3F5F
:061BCC00FF3FFF3FFF3F59
:061BD200FF3FFF3FFF3F53
:061BD800FF3FFF3FFF3F4D
:061BDE00FF3FFF3FFF3F47
:061BE400FF3FFF3FFF3F41
:061BEA00FF3FFF3FFF3F3B
:061BF000FF3FFF3FFF3F35
:061BF600FF3FFF3FFF3F2F
:061BFC00FF3FFF3FFF3F29
:061C0200FF3FFF3FFF3F22
:061C0800FF3FFF3FFF3F1C
:061C0E00FF3FFF3FFF3F16
:061C1400FF3FFF3FFF3F10
:061C1A00FF3FFF3FFF3F0A
:061C2000FF3FFF3FFF3F04
:061C2600FF3FFF3FFF3FFE
:061C2C00FF3FFF3FFF3FF8
:061C3200FF3FFF3FFF3FF2
:061C3800FF3FFF3FFF3FEC
:061C3E00FF3FFF3FFF3FE6
:061C4400FF3FFF3FFF3FE0
:061C4A00FF3FFF3FFF3FDA
:061C5000FF3FFF3FFF3FD4
:061C5600FF3FFF3FFF3FCE
:061C5C00FF3FFF3FFF3FC8
:061C6200FF3FFF3FFF3FC2
:061C6800FF3FFF3FFF3FBC
:061C6E00FF3FFF3FFF3FB6
:061C7400FF3FFF3FFF3FB0
:061C7A00FF3FFF3FFF3FAA
:061C8000FF3FFF3FFF3FA4
:061C8600FF3FFF3FFF3F9E
:061C8C00FF3FFF3FFF3F98
:061C9200FF3FFF3FFF3F92
:061C9800FF3FFF3FFF3F8C
:061C9E00FF3FFF3FFF3F86
:061CA400FF3FFF3FFF3F80
:061CAA00FF3FFF3FFF3F7A
:061CB000FF3FFF3FFF3F74
:061CB600FF3FFF3FFF3F6E
:061CBC00FF3FFF3FFF3F68
:061CC200FF3FFF3FFF3F62
:061CC800FF3FFF3FFF3F5C
:061CCE00FF3FFF3FFF3F56
:061CD400FF3FFF3FFF3F50
:061CDA00FF3FFF3FFF3F4A
:061CE000FF3FFF3FFF3F44
:061CE600FF3FFF3FFF3F3E
:061CEC00FF3FFF3FFF3F38
:061CF200FF3FFF3FFF3F32
:061CF800FF3FFF3FFF3F2C
:061CFE00FF3FFF3FFF3F26
:061D0400FF3FFF3FFF3F1F
:061D0A00FF3FFF3FFF3F19
:061D1000FF3FFF3FFF3F13
:061D1600FF3FFF3FFF3F0D
:061D1C00FF3FFF3FFF3F07
:061D2200FF3FFF3FFF3F01
:061D2800FF3FFF3FFF3FFB
:061D2E00FF3FFF3FFF3FF5
:061D3400FF3FFF3FFF3FEF
:061D3A00FF3FFF3FFF3FE9
:061D4000FF3FFF3FFF3FE3
:061D4600FF3FFF3FFF3FDD
:061D4C00FF3FFF3FFF3FD7
:061D5200FF3FFF3FFF3FD1
:061D5800FF3FFF3FFF3FCB
:061D5E00FF3FFF3FFF3FC5
:061D6400FF3FFF3FFF3FBF
:061D6A00FF3FFF3FFF3FB9
:061D7000FF3FFF3FFF3FB3
:061D7600FF3FFF3FFF3FAD
:061D7C00FF3FFF3FFF3FA7
:061D8200FF3FFF3FFF3FA1
:061D8800FF3FFF3FFF3F9B
:061D8E00FF3FFF3FFF3F95
:061D9400FF3FFF3FFF3F8F
:061D9A00FF3FFF3FFF3F89
:061DA000FF3FFF3FFF3F83
:061DA600FF3FFF3FFF3F7D
:061DAC00FF3FFF3FFF3F77
:061DB200FF3FFF3FFF3F71
:061DB800FF3FFF3FFF3F6B
:061DBE00FF3FFF3FFF3F65
:061DC400FF3FFF3FFF3F5F
:061DCA00FF3FFF3FFF3F59
:061DD000FF3FFF3FFF3F53
:061DD600FF3FFF3FFF3F4D
:061DDC00FF3FFF3FFF3F47
:061DE200FF3FFF3FFF3F41
:061DE800FF3FFF3FFF3F3B
:061DEE00FF3FFF3FFF3F35
:061DF400FF3FFF3FFF3F2F
:061DFA00FF3FFF3FFF3F29
:061E0000FF3FFF3FFF3F22
:061E0600FF3FFF3FFF3F1C
:061E0C00FF3FFF3FFF3F16
:061E1200FF3FFF3FFF3F10
:061E1800FF3FFF3FFF3F0A
:061E1E00FF3FFF3FFF3F04
:061E2400FF3FFF3FFF3FFE
:061E2A00FF3FFF3FFF3FF8
:061E3000FF3FFF3FFF3FF2
:061E3600FF3FFF3FFF3FEC
:061E3C00FF3FFF3FFF3FE6
:061E4200FF3FFF3FFF3FE0
:061E4800FF3FFF3FFF3FDA
:061E4E00FF3FFF3FFF3FD4
:061E5400FF3FFF3FFF3FCE
:061E5A00FF3FFF3FFF3FC8
:061E6000FF3FFF3FFF3FC2
:061E6600FF3FFF3FFF3FBC
:061E6C00FF3FFF3FFF3FB6
:061E7200FF3FFF3FFF3FB0
:061E7800FF3FFF3FFF3FAA
:061E7E00FF3FFF3FFF3FA4
:061E8400FF3FFF3FFF3F9E
:061E8A00FF3FFF3FFF3F98
:061E9000FF3FFF3FFF3F92
:061E9600FF3FFF3FFF3F8C
:061E9C00FF3FFF3FFF3F86
:061EA200FF3FFF3FFF3F80
:061EA800FF3FFF3FFF3F7A
:061EAE00FF3FFF3FFF3F74
:061EB400FF3FFF3FFF3F6E
:061EBA00FF3FFF3FFF3F68
:061EC000FF3FFF3FFF3F62
:061EC600FF3FFF3FFF3F5C
:061ECC00FF3FFF3FFF3F56
:061ED200FF3FFF3FFF3F50
:061ED800FF3FFF3FFF3F4A
:061EDE00FF3FFF3FFF3F44
:061EE400FF3FFF3FFF3F3E
:061EEA00FF3FFF3FFF3F38
:061EF000FF3FFF3FFF3F32
:061EF600FF3FFF3FFF3F2C
:061EFC00FF3FFF3FFF3F26
:061F0200FF3FFF3FFF3F1F
:061F0800FF3FFF3FFF3F19
:061F0E00FF3FFF3FFF3F13
:061F1400FF3FFF3FFF3F0D
:061F1A00FF3FFF3FFF3F07
:061F2000FF3FFF3FFF3F01
:061F2600FF3FFF3FFF3FFB
:061F2C00FF3FFF3FFF3FF5
:061F3200FF3FFF3FFF3FEF
:061F3800FF3FFF3FFF3FE9
:061F3E00FF3FFF3FFF3FE3
:061F4400FF3FFF3FFF3FDD
:061F4A00FF3FFF3FFF3FD7
:061F5000FF3FFF3FFF3FD1
:061F5600FF3FFF3FFF3FCB
:061F5C00FF3FFF3FFF3FC5
:061F6200FF3FFF3FFF3FBF
:061F6800FF3FFF3FFF3FB9
:061F6E00FF3FFF3FFF3FB3
:061F7400FF3FFF3FFF3FAD
:061F7A00FF3FFF3FFF3FA7
:061F8000FF3FFF3FFF3FA1
:061F8600FF3FFF3FFF3F9B
:061F8C00FF3FFF3FFF3F95
:061F9200FF3FFF3FFF3F8F
:061F9800FF3FFF3FFF3F89
:061F9E00FF3FFF3FFF3F83
:061FA400FF3FFF3FFF3F7D
:061FAA00FF3FFF3FFF3F77
:061FB000FF3FFF3FFF3F71
:061FB600FF3FFF3FFF3F6B
:061FBC00FF3FFF3FFF3F65
:061FC200FF3FFF3FFF3F5F
:061FC800FF3FFF3FFF3F59
:061FCE00FF3FFF3FFF3F53
:061FD400FF3FFF3FFF3F4D
:061FDA00FF3FFF3FFF3F47
:061FE000FF3FFF3FFF3F41
:061FE600FF3FFF3FFF3F3B
:061FEC00FF3FFF3FFF3F35
:061FF200FF3FFF3FFF3F2F
:061FF800FF3FFF3FFF3F29
:061FFE00FF3FFF3FFF3F23
:06200400FF3FFF3FFF3F1C
:06200A00FF3FFF3FFF3F16
:06201000FF3FFF3FFF3F10
:06201600FF3FFF3FFF3F0A
:06201C00FF3FFF3FFF3F04
:06202200FF3FFF3FFF3FFE
:06202800FF3FFF3FFF3FF8
:06202E00FF3FFF3FFF3FF2
:06203400FF3FFF3FFF3FEC
:06203A00FF3FFF3FFF3FE6
:06204000FF3FFF3FFF3FE0
:06204600FF3FFF3FFF3FDA
:06204C00FF3FFF3FFF3FD4
:06205200FF3FFF3FFF3FCE
:06205800FF3FFF3FFF3FC8
:06205E00FF3FFF3FFF3FC2
:06206400FF3FFF3FFF3FBC
:06206A00FF3FFF3FFF3FB6
:06207000FF3FFF3FFF3FB0
:06207600FF3FFF3FFF3FAA
:06207C00FF3FFF3FFF3FA4
:06208200FF3FFF3FFF3F9E
:06208800FF3FFF3FFF3F98
:06208E00FF3FFF3FFF3F92
:06209400FF3FFF3FFF3F8C
:06209A00FF3FFF3FFF3F86
:0620A000FF3FFF3FFF3F80
:0620A600FF3FFF3FFF3F7A
:0620AC00FF3FFF3FFF3F74
:0620B200FF3FFF3FFF3F6E
:0620B800FF3FFF3FFF3F68
:0620BE00FF3FFF3FFF3F62
:0620C400FF3FFF3FFF3F5C
:0620CA00FF3FFF3FFF3F56
:0620D000FF3FFF3FFF3F50
:0620D600FF3FFF3FFF3F4A
:0620DC00FF3FFF3FFF3F44
:0620E200FF3FFF3FFF3F3E
:0620E800FF3FFF3FFF3F38
:0620EE00FF3FFF3FFF3F32
:0620F400FF3FFF3FFF3F2C
:0620FA00FF3FFF3FFF3F26
:06210000FF3FFF3FFF3F1F
:06210600FF3FFF3FFF3F19
:06210C00FF3FFF3FFF3F13
:06211200FF3FFF3FFF3F0D
:06211800FF3FFF3FFF3F07
:06211E00FF3FFF3FFF3F01
:06212400FF3FFF3FFF3FFB
:06212A00FF3FFF3FFF3FF5
:06213000FF3FFF3FFF3FEF
:06213600FF3FFF3FFF3FE9
:06213C00FF3FFF3FFF3FE3
:06214200FF3FFF3FFF3FDD
:06214800FF3FFF3FFF3FD7
:06214E00FF3FFF3FFF3FD1
:06215400FF3FFF3FFF3FCB
:06215A00FF3FFF3FFF3FC5
:06216000FF3FFF3FFF3FBF
:06216600FF3FFF3FFF3FB9
:06216C00FF3FFF3FFF3FB3
:06217200FF3FFF3FFF3FAD
:06217800FF3FFF3FFF3FA7
:06217E00FF3FFF3FFF3FA1
:06218400FF3FFF3FFF3F9B
:06218A00FF3FFF3FFF3F95
:06219000FF3FFF3FFF3F8F
:06219600FF3FFF3FFF3F89
:06219C00FF3FFF3FFF3F83
:0621A200FF3FFF3FFF3F7D
:0621A800FF3FFF3FFF3F77
:0621AE00FF3FFF3FFF3F71
:0621B400FF3FFF3FFF3F6B
:0621BA00FF3FFF3FFF3F65
:0621C000FF3FFF3FFF3F5F
:0621C600FF3FFF3FFF3F59
:0621CC00FF3FFF3FFF3F53
:0621D200FF3FFF3FFF3F4D
:0621D800FF3FFF3FFF3F47
:0621DE00FF3FFF3FFF3F41
:0621E400FF3FFF3FFF3F3B
:0621EA00FF3FFF3FFF3F35
:0621F000FF3FFF3FFF3F2F
:0621F600FF3FFF3FFF3F29
:0621FC00FF3FFF3FFF3F23
:06220200FF3FFF3FFF3F1C
:06220800FF3FFF3FFF3F16
:06220E00FF3FFF3FFF3F10
:06221400FF3FFF3FFF3F0A
:06221A00FF3FFF3FFF3F04
:06222000FF3FFF3FFF3FFE
:06222600FF3FFF3FFF3FF8
:06222C00FF3FFF3FFF3FF2
:06223200FF3FFF3FFF3FEC
:06223800FF3FFF3FFF3FE6
:06223E00FF3FFF3FFF3FE0
:06224400FF3FFF3FFF3FDA
:06224A00FF3FFF3FFF3FD4
:06225000FF3FFF3FFF3FCE
:06225600FF3FFF3FFF3FC8
:06225C00FF3FFF3FFF3FC2
:06226200FF3FFF3FFF3FBC
:06226800FF3FFF3FFF3FB6
:06226E00FF3FFF3FFF3FB0
:06227400FF3FFF3FFF3FAA
:06227A00FF3FFF3FFF3FA4
:06228000FF3FFF3FFF3F9E
:06228600FF3FFF3FFF3F98
:06228C00FF3FFF3FFF3F92
:06229200FF3FFF3FFF3F8C
:06229800FF3FFF3FFF3F86
:06229E00FF3FFF3FFF3F80
:0622A400FF3FFF3FFF3F7A
:0622AA00FF3FFF3FFF3F74
:0622B000FF3FFF3FFF3F6E
:0622B600FF3FFF3FFF3F68
:0622BC00FF3FFF3FFF3F62
:0622C200FF3FFF3FFF3F5C
:0622C800FF3FFF3FFF3F56
:0622CE00FF3FFF3FFF3F50
:0622D400FF3FFF3FFF3F4A
:0622DA00FF3FFF3FFF3F44
:0622E000FF3FFF3FFF3F3E
:0622E600FF3FFF3FFF3F38
:0622EC00FF3FFF3FFF3F32
:0622F200FF3FFF3FFF3F2C
:0622F800FF3FFF3FFF3F26
:0622FE00FF3FFF3FFF3F20
:06230400FF3FFF3FFF3F19
:06230A00FF3FFF3FFF3F13
:06231000FF3FFF3FFF3F0D
:06231600FF3FFF3FFF3F07
:06231C00FF3FFF3FFF3F01
:06232200FF3FFF3FFF3FFB
:06232800FF3FFF3FFF3FF5
:06232E00FF3FFF3FFF3FEF
:06233400FF3FFF3FFF3FE9
:06233A00FF3FFF3FFF3FE3
:06234000FF3FFF3FFF3FDD
:06234600FF3FFF3FFF3FD7
:06234C00FF3FFF3FFF3FD1
:06235200FF3FFF3FFF3FCB
:06235800FF3FFF3FFF3FC5
:06235E00FF3FFF3FFF3FBF
:06236400FF3FFF3FFF3FB9
:06236A00FF3FFF3FFF3FB3
:06237000FF3FFF3FFF3FAD
:06237600FF3FFF3FFF3FA7
:06237C00FF3FFF3FFF3FA1
:06238200FF3FFF3FFF3F9B
:06238800FF3FFF3FFF3F95
:06238E00FF3FFF3FFF3F8F
:06239400FF3FFF3FFF3F89
:06239A00FF3FFF3FFF3F83
:0623A000FF3FFF3FFF3F7D
:0623A600FF3FFF3FFF3F77
:0623AC00FF3FFF3FFF3F71
:0623B200FF3FFF3FFF3F6B
:0623B800FF3FFF3FFF3F65
:0623BE00FF3FFF3FFF3F5F
:0623C400FF3FFF3FFF3F59
:0623CA00FF3FFF3FFF3F53
:0623D000FF3FFF3FFF3F4D
:0623D600FF3FFF3FFF3F47
:0623DC00FF3FFF3FFF3F41
:0623E200FF3FFF3FFF3F3B
:0623E800FF3FFF3FFF3F35
:0623EE00FF3FFF3FFF3F2F
:0623F400FF3FFF3FFF3F29
:0623FA00FF3FFF3FFF3F23
:06240000FF3FFF3FFF3F1C
:06240600FF3FFF3FFF3F16
:06240C00FF3FFF3FFF3F10
:06241200FF3FFF3FFF3F0A
:06241800FF3FFF3FFF3F04
:06241E00FF3FFF3FFF3FFE
:06242400FF3FFF3FFF3FF8
:06242A00FF3FFF3FFF3FF2
:06243000FF3FFF3FFF3FEC
:06243600FF3FFF3FFF3FE6
:06243C00FF3FFF3FFF3FE0
:06244200FF3FFF3FFF3FDA
:06244800FF3FFF3FFF3FD4
:06244E00FF3FFF3FFF3FCE
:06245400FF3FFF3FFF3FC8
:06245A00FF3FFF3FFF3FC2
:06246000FF3FFF3FFF3FBC
:06246600FF3FFF3FFF3FB6
:06246C00FF3FFF3FFF3FB0
:06247200FF3FFF3FFF3FAA
:06247800FF3FFF3FFF3FA4
:06247E00FF3FFF3FFF3F9E
:06248400FF3FFF3FFF3F98
:06248A00FF3FFF3FFF3F92
:06249000FF3FFF3FFF3F8C
:06249600FF3FFF3FFF3F86
:06249C00FF3FFF3FFF3F80
:0624A200FF3FFF3FFF3F7A
:0624A800FF3FFF3FFF3F74
:0624AE00FF3FFF3FFF3F6E
:0624B400FF3FFF3FFF3F68
:0624BA00FF3FFF3FFF3F62
:0624C000FF3FFF3FFF3F5C
:0624C600FF3FFF3FFF3F56
:0624CC00FF3FFF3FFF3F50
:0624D200FF3FFF3FFF3F4A
:0624D800FF3FFF3FFF3F44
:0624DE00FF3FFF3FFF3F3E
:0624E400FF3FFF3FFF3F38
:0624EA00FF3FFF3FFF3F32
:0624F000FF3FFF3FFF3F2C
:0624F600FF3FFF3FFF3F26
:0624FC00FF3FFF3FFF3F20
:06250200FF3FFF3FFF3F19
:06250800FF3FFF3FFF3F13
:06250E00FF3FFF3FFF3F0D
:06251400FF3FFF3FFF3F07
:06251A00FF3FFF3FFF3F01
:06252000FF3FFF3FFF3FFB
:06252600FF3FFF3FFF3FF5
:06252C00FF3FFF3FFF3FEF
:06253200FF3FFF3FFF3FE9
:06253800FF3FFF3FFF3FE3
:06253E00FF3FFF3FFF3FDD
:06254400FF3FFF3FFF3FD7
:06254A00FF3FFF3FFF3FD1
:06255000FF3FFF3FFF3FCB
:06255600FF3FFF3FFF3FC5
:06255C00FF3FFF3FFF3FBF
:06256200FF3FFF3FFF3FB9
:06256800FF3FFF3FFF3FB3
:06256E00FF3FFF3FFF3FAD
:06257400FF3FFF3FFF3FA7
:06257A00FF3FFF3FFF3FA1
:06258000FF3FFF3FFF3F9B
:06258600FF3FFF3FFF3F95
:06258C00FF3FFF3FFF3F8F
:06259200FF3FFF3FFF3F89
:06259800FF3FFF3FFF3F83
:06259E00FF3FFF3FFF3F7D
:0625A400FF3FFF3FFF3F77
:0625AA00FF3FFF3FFF3F71
:0625B000FF3FFF3FFF3F6B
:0625B600FF3FFF3FFF3F65
:0625BC00FF3FFF3FFF3F5F
:0625C200FF3FFF3FFF3F59
:0625C800FF3FFF3FFF3F53
:0625CE00FF3FFF3FFF3F4D
:0625D400FF3FFF3FFF3F47
:0625DA00FF3FFF3FFF3F41
:0625E000FF3FFF3FFF3F3B
:0625E600FF3FFF3FFF3F35
:0625EC00FF3FFF3FFF3F2F
:0625F200FF3FFF3FFF3F29
:0625F800FF3FFF3FFF3F23
:0625FE00FF3FFF3FFF3F1D
:06260400FF3FFF3FFF3F16
:06260A00FF3FFF3FFF3F10
:06261000FF3FFF3FFF3F0A
:06261600FF3FFF3FFF3F04
:06261C00FF3FFF3FFF3FFE
:06262200FF3FFF3FFF3FF8
:06262800FF3FFF3FFF3FF2
:06262E00FF3FFF3FFF3FEC
:06263400FF3FFF3FFF3FE6
:06263A00FF3FFF3FFF3FE0
:06264000FF3FFF3FFF3FDA
:06264600FF3FFF3FFF3FD4
:06264C00FF3FFF3FFF3FCE
:06265200FF3FFF3FFF3FC8
:06265800FF3FFF3FFF3FC2
:06265E00FF3FFF3FFF3FBC
:06266400FF3FFF3FFF3FB6
:06266A00FF3FFF3FFF3FB0
:06267000FF3FFF3FFF3FAA
:06267600FF3FFF3FFF3FA4
:06267C00FF3FFF3FFF3F9E
:06268200FF3FFF3FFF3F98
:06268800FF3FFF3FFF3F92
:06268E00FF3FFF3FFF3F8C
:06269400FF3FFF3FFF3F86
:06269A00FF3FFF3FFF3F80
:0626A000FF3FFF3FFF3F7A
:0626A600FF3FFF3FFF3F74
:0626AC00FF3FFF3FFF3F6E
:0626B200FF3FFF3FFF3F68
:0626B800FF3FFF3FFF3F62
:0626BE00FF3FFF3FFF3F5C
:0626C400FF3FFF3FFF3F56
:0626CA00FF3FFF3FFF3F50
:0626D000FF3FFF3FFF3F4A
:0626D600FF3FFF3FFF3F44
:0626DC00FF3FFF3FFF3F3E
:0626E200FF3FFF3FFF3F38
:0626E800FF3FFF3FFF3F32
:0626EE00FF3FFF3FFF3F2C
:0626F400FF3FFF3FFF3F26
:0626FA00FF3FFF3FFF3F20
:06270000FF3FFF3FFF3F19
:06270600FF3FFF3FFF3F13
:06270C00FF3FFF3FFF3F0D
:06271200FF3FFF3FFF3F07
:06271800FF3FFF3FFF3F01
:06271E00FF3FFF3FFF3FFB
:06272400FF3FFF3FFF3FF5
:06272A00FF3FFF3FFF3FEF
:06273000FF3FFF3FFF3FE9
:06273600FF3FFF3FFF3FE3
:06273C00FF3FFF3FFF3FDD
:06274200FF3FFF3FFF3FD7
:06274800FF3FFF3FFF3FD1
:06274E00FF3FFF3FFF3FCB
:06275400FF3FFF3FFF3FC5
:06275A00FF3FFF3FFF3FBF
:06276000FF3FFF3FFF3FB9
:06276600FF3FFF3FFF3FB3
:06276C00FF3FFF3FFF3FAD
:06277200FF3FFF3FFF3FA7
:06277800FF3FFF3FFF3FA1
:06277E00FF3FFF3FFF3F9B
:06278400FF3FFF3FFF3F95
:06278A00FF3FFF3FFF3F8F
:06279000FF3FFF3FFF3F89
:06279600FF3FFF3FFF3F83
:06279C00FF3FFF3FFF3F7D
:0627A200FF3FFF3FFF3F77
:0627A800FF3FFF3FFF3F71
:0627AE00FF3FFF3FFF3F6B
:0627B400FF3FFF3FFF3F65
:0627BA00FF3FFF3FFF3F5F
:0627C000FF3FFF3FFF3F59
:0627C600FF3FFF3FFF3F53
:0627CC00FF3FFF3FFF3F4D
:0627D200FF3FFF3FFF3F47
:0627D800FF3FFF3FFF3F41
:0627DE00FF3FFF3FFF3F3B
:0627E400FF3FFF3FFF3F35
:0627EA00FF3FFF3FFF3F2F
:0627F000FF3FFF3FFF3F29
:0627F600FF3FFF3FFF3F23
:0627FC00FF3FFF3FFF3F1D
:06280200FF3FFF3FFF3F16
:06280800FF3FFF3FFF3F10
:06280E00FF3FFF3FFF3F0A
:06281400FF3FFF3FFF3F04
:06281A00FF3FFF3FFF3FFE
:06282000FF3FFF3FFF3FF8
:06282600FF3FFF3FFF3FF2
:06282C00FF3FFF3FFF3FEC
:06283200FF3FFF3FFF3FE6
:06283800FF3FFF3FFF3FE0
:06283E00FF3FFF3FFF3FDA
:06284400FF3FFF3FFF3FD4
:06284A00FF3FFF3FFF3FCE
:06285000FF3FFF3FFF3FC8
:06285600FF3FFF3FFF3FC2
:06285C00FF3FFF3FFF3FBC
:06286200FF3FFF3FFF3FB6
:06286800FF3FFF3FFF3FB0
:06286E00FF3FFF3FFF3FAA
:06287400FF3FFF3FFF3FA4
:06287A00FF3FFF3FFF3F9E
:06288000FF3FFF3FFF3F98
:06288600FF3FFF3FFF3F92
:06288C00FF3FFF3FFF3F8C
:06289200FF3FFF3FFF3F86
:06289800FF3FFF3FFF3F80
:06289E00FF3FFF3FFF3F7A
:0628A400FF3FFF3FFF3F74
:0628AA00FF3FFF3FFF3F6E
:0628B000FF3FFF3FFF3F68
:0628B600FF3FFF3FFF3F62
:0628BC00FF3FFF3FFF3F5C
:0628C200FF3FFF3FFF3F56
:0628C800FF3FFF3FFF3F50
:0628CE00FF3FFF3FFF3F4A
:0628D400FF3FFF3FFF3F44
:0628DA00FF3FFF3FFF3F3E
:0628E000FF3FFF3FFF3F38
:0628E600FF3FFF3FFF3F32
:0628EC00FF3FFF3FFF3F2C
:0628F200FF3FFF3FFF3F26
:0628F800FF3FFF3FFF3F20
:0628FE00FF3FFF3FFF3F1A
:06290400FF3FFF3FFF3F13
:06290A00FF3FFF3FFF3F0D
:06291000FF3FFF3FFF3F07
:06291600FF3FFF3FFF3F01
:06291C00FF3FFF3FFF3FFB
:06292200FF3FFF3FFF3FF5
:06292800FF3FFF3FFF3FEF
:06292E00FF3FFF3FFF3FE9
:06293400FF3FFF3FFF3FE3
:06293A00FF3FFF3FFF3FDD
:06294000FF3FFF3FFF3FD7
:06294600FF3FFF3FFF3FD1
:06294C00FF3FFF3FFF3FCB
:06295200FF3FFF3FFF3FC5
:06295800FF3FFF3FFF3FBF
:06295E00FF3FFF3FFF3FB9
:06296400FF3FFF3FFF3FB3
:06296A00FF3FFF3FFF3FAD
:06297000FF3FFF3FFF3FA7
:06297600FF3FFF3FFF3FA1
:06297C00FF3FFF3FFF3F9B
:06298200FF3FFF3FFF3F95
:06298800FF3FFF3FFF3F8F
:06298E00FF3FFF3FFF3F89
:06299400FF3FFF3FFF3F83
:06299A00FF3FFF3FFF3F7D
:0629A000FF3FFF3FFF3F77
:0629A600FF3FFF3FFF3F71
:0629AC00FF3FFF3FFF3F6B
:0629B200FF3FFF3FFF3F65
:0629B800FF3FFF3FFF3F5F
:0629BE00FF3FFF3FFF3F59
:0629C400FF3FFF3FFF3F53
:0629CA00FF3FFF3FFF3F4D
:0629D000FF3FFF3FFF3F47
:0629D600FF3FFF3FFF3F41
:0629DC00FF3FFF3FFF3F3B
:0629E200FF3FFF3FFF3F35
:0629E800FF3FFF3FFF3F2F
:0629EE00FF3FFF3FFF3F29
:0629F400FF3FFF3FFF3F23
:0629FA00FF3FFF3FFF3F1D
:062A0000FF3FFF3FFF3F16
:062A0600FF3FFF3FFF3F10
:062A0C00FF3FFF3FFF3F0A
:062A1200FF3FFF3FFF3F04
:062A1800FF3FFF3FFF3FFE
:062A1E00FF3FFF3FFF3FF8
:062A2400FF3FFF3FFF3FF2
:062A2A00FF3FFF3FFF3FEC
:062A3000FF3FFF3FFF3FE6
:062A3600FF3FFF3FFF3FE0
:062A3C00FF3FFF3FFF3FDA
:062A4200FF3FFF3FFF3FD4
:062A4800FF3FFF3FFF3FCE
:062A4E00FF3FFF3FFF3FC8
:062A5400FF3FFF3FFF3FC2
:062A5A00FF3FFF3FFF3FBC
:062A6000FF3FFF3FFF3FB6
:062A6600FF3FFF3FFF3FB0
:062A6C00FF3FFF3FFF3FAA
:062A7200FF3FFF3FFF3FA4
:062A7800FF3FFF3FFF3F9E
:062A7E00FF3FFF3FFF3F98
:062A8400FF3FFF3FFF3F92
:062A8A00FF3FFF3FFF3F8C
:062A9000FF3FFF3FFF3F86
:062A9600FF3FFF3FFF3F80
:062A9C00FF3FFF3FFF3F7A
:062AA200FF3FFF3FFF3F74
:062AA800FF3FFF3FFF3F6E
:062AAE00FF3FFF3FFF3F68
:062AB400FF3FFF3FFF3F62
:062ABA00FF3FFF3FFF3F5C
:062AC000FF3FFF3FFF3F56
:062AC600FF3FFF3FFF3F50
:062ACC00FF3FFF3FFF3F4A
:062AD200FF3FFF3FFF3F44
:062AD800FF3FFF3FFF3F3E
:062ADE00FF3FFF3FFF3F38
:062AE400FF3FFF3FFF3F32
:062AEA00FF3FFF3FFF3F2C
:062AF000FF3FFF3FFF3F26
:062AF600FF3FFF3FFF3F20
:062AFC00FF3FFF3FFF3F1A
:062B0200FF3FFF3FFF3F13
:062B0800FF3FFF3FFF3F0D
:062B0E00FF3FFF3FFF3F07
:062B1400FF3FFF3FFF3F01
:062B1A00FF3FFF3FFF3FFB
:062B2000FF3FFF3FFF3FF5
:062B2600FF3FFF3FFF3FEF
:062B2C00FF3FFF3FFF3FE9
:062B3200FF3FFF3FFF3FE3
:062B3800FF3FFF3FFF3FDD
:062B3E00FF3FFF3FFF3FD7
:062B4400FF3FFF3FFF3FD1
:062B4A00FF3FFF3FFF3FCB
:062B5000FF3FFF3FFF3FC5
:062B5600FF3FFF3FFF3FBF
:062B5C00FF3FFF3FFF3FB9
:062B6200FF3FFF3FFF3FB3
:062B6800FF3FFF3FFF3FAD
:062B6E00FF3FFF3FFF3FA7
:062B7400FF3FFF3FFF3FA1
:062B7A00FF3FFF3FFF3F9B
:062B8000FF3FFF3FFF3F95
:062B8600FF3FFF3FFF3F8F
:062B8C00FF3FFF3FFF3F89
:062B9200FF3FFF3FFF3F83
:062B9800FF3FFF3FFF3F7D
:062B9E00FF3FFF3FFF3F77
:062BA400FF3FFF3FFF3F71
:062BAA00FF3FFF3FFF3F6B
:062BB000FF3FFF3FFF3F65
:062BB600FF3FFF3FFF3F5F
:062BBC00FF3FFF3FFF3F59
:062BC200FF3FFF3FFF3F53
:062BC800FF3FFF3FFF3F4D
:062BCE00FF3FFF3FFF3F47
:062BD400FF3FFF3FFF3F41
:062BDA00FF3FFF3FFF3F3B
:062BE000FF3FFF3FFF3F35
:062BE600FF3FFF3FFF3F2F
:062BEC00FF3FFF3FFF3F29
:062BF200FF3FFF3FFF3F23
:062BF800FF3FFF3FFF3F1D
:062BFE00FF3FFF3FFF3F17
:062C0400FF3FFF3FFF3F10
:062C0A00FF3FFF3FFF3F0A
:062C1000FF3FFF3FFF3F04
:062C1600FF3FFF3FFF3FFE
:062C1C00FF3FFF3FFF3FF8
:062C2200FF3FFF3FFF3FF2
:062C2800FF3FFF3FFF3FEC
:062C2E00FF3FFF3FFF3FE6
:062C3400FF3FFF3FFF3FE0
:062C3A00FF3FFF3FFF3FDA
:062C4000FF3FFF3FFF3FD4
:062C4600FF3FFF3FFF3FCE
:062C4C00FF3FFF3FFF3FC8
:062C5200FF3FFF3FFF3FC2
:062C5800FF3FFF3FFF3FBC
:062C5E00FF3FFF3FFF3FB6
:062C6400FF3FFF3FFF3FB0
:062C6A00FF3FFF3FFF3FAA
:062C7000FF3FFF3FFF3FA4
:062C7600FF3FFF3FFF3F9E
:062C7C00FF3FFF3FFF3F98
:062C8200FF3FFF3FFF3F92
:062C8800FF3FFF3FFF3F8C
:062C8E00FF3FFF3FFF3F86
:062C9400FF3FFF3FFF3F80
:062C9A00FF3FFF3FFF3F7A
:062CA000FF3FFF3FFF3F74
:062CA600FF3FFF3FFF3F6E
:062CAC00FF3FFF3FFF3F68
:062CB200FF3FFF3FFF3F62
:062CB800FF3FFF3FFF3F5C
:062CBE00FF3FFF3FFF3F56
:062CC400FF3FFF3FFF3F50
:062CCA00FF3FFF3FFF3F4A
:062CD000FF3FFF3FFF3F44
:062CD600FF3FFF3FFF3F3E
:062CDC00FF3FFF3FFF3F38
:062CE200FF3FFF3FFF3F32
:062CE800FF3FFF3FFF3F2C
:062CEE00FF3FFF3FFF3F26
:062CF400FF3FFF3FFF3F20
:062CFA00FF3FFF3FFF3F1A
:062D0000FF3FFF3FFF3F13
:062D0600FF3FFF3FFF3F0D
:062D0C00FF3FFF3FFF3F07
:062D1200FF3FFF3FFF3F01
:062D1800FF3FFF3FFF3FFB
:062D1E00FF3FFF3FFF3FF5
:062D2400FF3FFF3FFF3FEF
:062D2A00FF3FFF3FFF3FE9
:062D3000FF3FFF3FFF3FE3
:062D3600FF3FFF3FFF3FDD
:062D3C00FF3FFF3FFF3FD7
:062D4200FF3FFF3FFF3FD1
:062D4800FF3FFF3FFF3FCB
:062D4E00FF3FFF3FFF3FC5
:062D5400FF3FFF3FFF3FBF
:062D5A00FF3FFF3FFF3FB9
:062D6000FF3FFF3FFF3FB3
:062D6600FF3FFF3FFF3FAD
:062D6C00FF3FFF3FFF3FA7
:062D7200FF3FFF3FFF3FA1
:062D7800FF3FFF3FFF3F9B
:062D7E00FF3FFF3FFF3F95
:062D8400FF3FFF3FFF3F8F
:062D8A00FF3FFF3FFF3F89
:062D9000FF3FFF3FFF3F83
:062D9600FF3FFF3FFF3F7D
:062D9C00FF3FFF3FFF3F77
:062DA200FF3FFF3FFF3F71
:062DA800FF3FFF3FFF3F6B
:062DAE00FF3FFF3FFF3F65
:062DB400FF3FFF3FFF3F5F
:062DBA00FF3FFF3FFF3F59
:062DC000FF3FFF3FFF3F53
:062DC600FF3FFF3FFF3F4D
:062DCC00FF3FFF3FFF3F47
:062DD200FF3FFF3FFF3F41
:062DD800FF3FFF3FFF3F3B
:062DDE00FF3FFF3FFF3F35
:062DE400FF3FFF3FFF3F2F
:062DEA00FF3FFF3FFF3F29
:062DF000FF3FFF3FFF3F23
:062DF600FF3FFF3FFF3F1D
:062DFC00FF3FFF3FFF3F17
:062E0200FF3FFF3FFF3F10
:062E0800FF3FFF3FFF3F0A
:062E0E00FF3FFF3FFF3F04
:062E1400FF3FFF3FFF3FFE
:062E1A00FF3FFF3FFF3FF8
:062E2000FF3FFF3FFF3FF2
:062E2600FF3FFF3FFF3FEC
:062E2C00FF3FFF3FFF3FE6
:062E3200FF3FFF3FFF3FE0
:062E3800FF3FFF3FFF3FDA
:062E3E00FF3FFF3FFF3FD4
:062E4400FF3FFF3FFF3FCE
:062E4A00FF3FFF3FFF3FC8
:062E5000FF3FFF3FFF3FC2
:062E5600FF3FFF3FFF3FBC
:062E5C00FF3FFF3FFF3FB6
:062E6200FF3FFF3FFF3FB0
:062E6800FF3FFF3FFF3FAA
:062E6E00FF3FFF3FFF3FA4
:062E7400FF3FFF3FFF3F9E
:062E7A00FF3FFF3FFF3F98
:062E8000FF3FFF3FFF3F92
:062E8600FF3FFF3FFF3F8C
:062E8C00FF3FFF3FFF3F86
:062E9200FF3FFF3FFF3F80
:062E9800FF3FFF3FFF3F7A
:062E9E00FF3FFF3FFF3F74
:062EA400FF3FFF3FFF3F6E
:062EAA00FF3FFF3FFF3F68
:062EB000FF3FFF3FFF3F62
:062EB600FF3FFF3FFF3F5C
:062EBC00FF3FFF3FFF3F56
:062EC200FF3FFF3FFF3F50
:062EC800FF3FFF3FFF3F4A
:062ECE00FF3FFF3FFF3F44
:062ED400FF3FFF3FFF3F3E
:062EDA00FF3FFF3FFF3F38
:062EE000FF3FFF3FFF3F32
:062EE600FF3FFF3FFF3F2C
:062EEC00FF3FFF3FFF3F26
:062EF200FF3FFF3FFF3F20
:062EF800FF3FFF3FFF3F1A
:062EFE00FF3FFF3FFF3F14
:062F0400FF3FFF3FFF3F0D
:062F0A00FF3FFF3FFF3F07
:062F1000FF3FFF3FFF3F01
:062F1600FF3FFF3FFF3FFB
:062F1C00FF3FFF3FFF3FF5
:062F2200FF3FFF3FFF3FEF
:062F2800FF3FFF3FFF3FE9
:062F2E00FF3FFF3FFF3FE3
:062F3400FF3FFF3FFF3FDD
:062F3A00FF3FFF3FFF3FD7
:062F4000FF3FFF3FFF3FD1
:062F4600FF3FFF3FFF3FCB
:062F4C00FF3FFF3FFF3FC5
:062F5200FF3FFF3FFF3FBF
:062F5800FF3FFF3FFF3FB9
:062F5E00FF3FFF3FFF3FB3
:062F6400FF3FFF3FFF3FAD
:062F6A00FF3FFF3FFF3FA7
:062F7000FF3FFF3FFF3FA1
:062F7600FF3FFF3FFF3F9B
:062F7C00FF3FFF3FFF3F95
:062F8200FF3FFF3FFF3F8F
:062F8800FF3FFF3FFF3F89
:062F8E00FF3FFF3FFF3F83
:062F9400FF3FFF3FFF3F7D
:062F9A00FF3FFF3FFF3F77
:062FA000FF3FFF3FFF3F71
:062FA600FF3FFF3FFF3F6B
:062FAC00FF3FFF3FFF3F65
:062FB200FF3FFF3FFF3F5F
:062FB800FF3FFF3FFF3F59
:062FBE00FF3FFF3FFF3F53
:062FC400FF3FFF3FFF3F4D
:062FCA00FF3FFF3FFF3F47
:062FD000FF3FFF3FFF3F41
:062FD600FF3FFF3FFF3F3B
:062FDC00FF3FFF3FFF3F35
:062FE200FF3FFF3FFF3F2F
:062FE800FF3FFF3FFF3F29
:062FEE00FF3FFF3FFF3F23
:062FF400FF3FFF3FFF3F1D
:062FFA00FF3FFF3FFF3F17
:06300000FF3FFF3FFF3F10
:06300600FF3FFF3FFF3F0A
:06300C00FF3FFF3FFF3F04
:06301200FF3FFF3FFF3FFE
:06301800FF3FFF3FFF3FF8
:06301E00FF3FFF3FFF3FF2
:06302400FF3FFF3FFF3FEC
:06302A00FF3FFF3FFF3FE6
:06303000FF3FFF3FFF3FE0
:06303600FF3FFF3FFF3FDA
:06303C00FF3FFF3FFF3FD4
:06304200FF3FFF3FFF3FCE
:06304800FF3FFF3FFF3FC8
:06304E00FF3FFF3FFF3FC2
:06305400FF3FFF3FFF3FBC
:06305A00FF3FFF3FFF3FB6
:06306000FF3FFF3FFF3FB0
:06306600FF3FFF3FFF3FAA
:06306C00FF3FFF3FFF3FA4
:06307200FF3FFF3FFF3F9E
:06307800FF3FFF3FFF3F98
:06307E00FF3FFF3FFF3F92
:06308400FF3FFF3FFF3F8C
:06308A00FF3FFF3FFF3F86
:06309000FF3FFF3FFF3F80
:06309600FF3FFF3FFF3F7A
:06309C00FF3FFF3FFF3F74
:0630A200FF3FFF3FFF3F6E
:0630A800FF3FFF3FFF3F68
:0630AE00FF3FFF3FFF3F62
:0630B400FF3FFF3FFF3F5C
:0630BA00FF3FFF3FFF3F56
:0630C000FF3FFF3FFF3F50
:0630C600FF3FFF3FFF3F4A
:0630CC00FF3FFF3FFF3F44
:0630D200FF3FFF3FFF3F3E
:0630D800FF3FFF3FFF3F38
:0630DE00FF3FFF3FFF3F32
:0630E400FF3FFF3FFF3F2C
:0630EA00FF3FFF3FFF3F26
:0630F000FF3FFF3FFF3F20
:0630F600FF3FFF3FFF3F1A
:0630FC00FF3FFF3FFF3F14
:06310200FF3FFF3FFF3F0D
:06310800FF3FFF3FFF3F07
:06310E00FF3FFF3FFF3F01
:06311400FF3FFF3FFF3FFB
:06311A00FF3FFF3FFF3FF5
:06312000FF3FFF3FFF3FEF
:06312600FF3FFF3FFF3FE9
:06312C00FF3FFF3FFF3FE3
:06313200FF3FFF3FFF3FDD
:06313800FF3FFF3FFF3FD7
:06313E00FF3FFF3FFF3FD1
:06314400FF3FFF3FFF3FCB
:06314A00FF3FFF3FFF3FC5
:06315000FF3FFF3FFF3FBF
:06315600FF3FFF3FFF3FB9
:06315C00FF3FFF3FFF3FB3
:06316200FF3FFF3FFF3FAD
:06316800FF3FFF3FFF3FA7
:06316E00FF3FFF3FFF3FA1
:06317400FF3FFF3FFF3F9B
:06317A00FF3FFF3FFF3F95
:06318000FF3FFF3FFF3F8F
:06318600FF3FFF3FFF3F89
:06318C00FF3FFF3FFF3F83
:06319200FF3FFF3FFF3F7D
:06319800FF3FFF3FFF3F77
:06319E00FF3FFF3FFF3F71
:0631A400FF3FFF3FFF3F6B
:0631AA00FF3FFF3FFF3F65
:0631B000FF3FFF3FFF3F5F
:0631B600FF3FFF3FFF3F59
:0631BC00FF3FFF3FFF3F53
:0631C200FF3FFF3FFF3F4D
:0631C800FF3FFF3FFF3F47
:0631CE00FF3FFF3FFF3F41
:0631D400FF3FFF3FFF3F3B
:0631DA00FF3FFF3FFF3F35
:0631E000FF3FFF3FFF3F2F
:0631E600FF3FFF3FFF3F29
:0631EC00FF3FFF3FFF3F23
:0631F200FF3FFF3FFF3F1D
:0631F800FF3FFF3FFF3F17
:0631FE00FF3FFF3FFF3F11
:06320400FF3FFF3FFF3F0A
:06320A00FF3FFF3FFF3F04
:06321000FF3FFF3FFF3FFE
:06321600FF3FFF3FFF3FF8
:06321C00FF3FFF3FFF3FF2
:06322200FF3FFF3FFF3FEC
:06322800FF3FFF3FFF3FE6
:06322E00FF3FFF3FFF3FE0
:06323400FF3FFF3FFF3FDA
:06323A00FF3FFF3FFF3FD4
:06324000FF3FFF3FFF3FCE
:06324600FF3FFF3FFF3FC8
:06324C00FF3FFF3FFF3FC2
:06325200FF3FFF3FFF3FBC
:06325800FF3FFF3FFF3FB6
:06325E00FF3FFF3FFF3FB0
:06326400FF3FFF3FFF3FAA
:06326A00FF3FFF3FFF3FA4
:06327000FF3FFF3FFF3F9E
:06327600FF3FFF3FFF3F98
:06327C00FF3FFF3FFF3F92
:06328200FF3FFF3FFF3F8C
:06328800FF3FFF3FFF3F86
:06328E00FF3FFF3FFF3F80
:06329400FF3FFF3FFF3F7A
:06329A00FF3FFF3FFF3F74
:0632A000FF3FFF3FFF3F6E
:0632A600FF3FFF3FFF3F68
:0632AC00FF3FFF3FFF3F62
:0632B200FF3FFF3FFF3F5C
:0632B800FF3FFF3FFF3F56
:0632BE00FF3FFF3FFF3F50
:0632C400FF3FFF3FFF3F4A
:0632CA00FF3FFF3FFF3F44
:0632D000FF3FFF3FFF3F3E
:0632D600FF3FFF3FFF3F38
:0632DC00FF3FFF3FFF3F32
:0632E200FF3FFF3FFF3F2C
:0632E800FF3FFF3FFF3F26
:0632EE00FF3FFF3FFF3F20
:0632F400FF3FFF3FFF3F1A
:0632FA00FF3FFF3FFF3F14
:06330000FF3FFF3FFF3F0D
:06330600FF3FFF3FFF3F07
:06330C00FF3FFF3FFF3F01
:06331200FF3FFF3FFF3FFB
:06331800FF3FFF3FFF3FF5
:06331E00FF3FFF3FFF3FEF
:06332400FF3FFF3FFF3FE9
:06332A00FF3FFF3FFF3FE3
:06333000FF3FFF3FFF3FDD
:06333600FF3FFF3FFF3FD7
:06333C00FF3FFF3FFF3FD1
:06334200FF3FFF3FFF3FCB
:06334800FF3FFF3FFF3FC5
:06334E00FF3FFF3FFF3FBF
:06335400FF3FFF3FFF3FB9
:06335A00FF3FFF3FFF3FB3
:06336000FF3FFF3FFF3FAD
:06336600FF3FFF3FFF3FA7
:06336C00FF3FFF3FFF3FA1
:06337200FF3FFF3FFF3F9B
:06337800FF3FFF3FFF3F95
:06337E00FF3FFF3FFF3F8F
:06338400FF3FFF3FFF3F89
:06338A00FF3FFF3FFF3F83
:06339000FF3FFF3FFF3F7D
:06339600FF3FFF3FFF3F77
:06339C00FF3FFF3FFF3F71
:0633A200FF3FFF3FFF3F6B
:0633A800FF3FFF3FFF3F65
:0633AE00FF3FFF3FFF3F5F
:0633B400FF3FFF3FFF3F59
:0633BA00FF3FFF3FFF3F53
:0633C000FF3FFF3FFF3F4D
:0633C600FF3FFF3FFF3F47
:0633CC00FF3FFF3FFF3F41
:0633D200FF3FFF3FFF3F3B
:0633D800FF3FFF3FFF3F35
:0633DE00FF3FFF3FFF3F2F
:0633E400FF3FFF3FFF3F29
:0633EA00FF3FFF3FFF3F23
:0633F000FF3FFF3FFF3F1D
:0633F600FF3FFF3FFF3F17
:0633FC00FF3FFF3FFF3F11
:06340200FF3FFF3FFF3F0A
:06340800FF3FFF3FFF3F04
:06340E00FF3FFF3FFF3FFE
:06341400FF3FFF3FFF3FF8
:06341A00FF3FFF3FFF3FF2
:06342000FF3FFF3FFF3FEC
:06342600FF3FFF3FFF3FE6
:06342C00FF3FFF3FFF3FE0
:06343200FF3FFF3FFF3FDA
:06343800FF3FFF3FFF3FD4
:06343E00FF3FFF3FFF3FCE
:06344400FF3FFF3FFF3FC8
:06344A00FF3FFF3FFF3FC2
:06345000FF3FFF3FFF3FBC
:06345600FF3FFF3FFF3FB6
:06345C00FF3FFF3FFF3FB0
:06346200FF3FFF3FFF3FAA
:06346800FF3FFF3FFF3FA4
:06346E00FF3FFF3FFF3F9E
:06347400FF3FFF3FFF3F98
:06347A00FF3FFF3FFF3F92
:06348000FF3FFF3FFF3F8C
:06348600FF3FFF3FFF3F86
:06348C00FF3FFF3FFF3F80
:06349200FF3FFF3FFF3F7A
:06349800FF3FFF3FFF3F74
:06349E00FF3FFF3FFF3F6E
:0634A400FF3FFF3FFF3F68
:0634AA00FF3FFF3FFF3F62
:0634B000FF3FFF3FFF3F5C
:0634B600FF3FFF3FFF3F56
:0634BC00FF3FFF3FFF3F50
:0634C200FF3FFF3FFF3F4A
:0634C800FF3FFF3FFF3F44
:0634CE00FF3FFF3FFF3F3E
:0634D400FF3FFF3FFF3F38
:0634DA00FF3FFF3FFF3F32
:0634E000FF3FFF3FFF3F2C
:0634E600FF3FFF3FFF3F26
:0634EC00FF3FFF3FFF3F20
:0634F200FF3FFF3FFF3F1A
:0634F800FF3FFF3FFF3F14
:0634FE00FF3FFF3FFF3F0E
:06350400FF3FFF3FFF3F07
:06350A00FF3FFF3FFF3F01
:06351000FF3FFF3FFF3FFB
:06351600FF3FFF3FFF3FF5
:06351C00FF3FFF3FFF3FEF
:06352200FF3FFF3FFF3FE9
:06352800FF3FFF3FFF3FE3
:06352E00FF3FFF3FFF3FDD
:06353400FF3FFF3FFF3FD7
:06353A00FF3FFF3FFF3FD1
:06354000FF3FFF3FFF3FCB
:06354600FF3FFF3FFF3FC5
:06354C00FF3FFF3FFF3FBF
:06355200FF3FFF3FFF3FB9
:06355800FF3FFF3FFF3FB3
:06355E00FF3FFF3FFF3FAD
:06356400FF3FFF3FFF3FA7
:06356A00FF3FFF3FFF3FA1
:06357000FF3FFF3FFF3F9B
:06357600FF3FFF3FFF3F95
:06357C00FF3FFF3FFF3F8F
:06358200FF3FFF3FFF3F89
:06358800FF3FFF3FFF3F83
:06358E00FF3FFF3FFF3F7D
:06359400FF3FFF3FFF3F77
:06359A00FF3FFF3FFF3F71
:0635A000FF3FFF3FFF3F6B
:0635A600FF3FFF3FFF3F65
:0635AC00FF3FFF3FFF3F5F
:0635B200FF3FFF3FFF3F59
:0635B800FF3FFF3FFF3F53
:0635BE00FF3FFF3FFF3F4D
:0635C400FF3FFF3FFF3F47
:0635CA00FF3FFF3FFF3F41
:0635D000FF3FFF3FFF3F3B
:0635D600FF3FFF3FFF3F35
:0635DC00FF3FFF3FFF3F2F
:0635E200FF3FFF3FFF3F29
:0635E800FF3FFF3FFF3F23
:0635EE00FF3FFF3FFF3F1D
:0635F400FF3FFF3FFF3F17
:0635FA00FF3FFF3FFF3F11
:06360000FF3FFF3FFF3F0A
:06360600FF3FFF3FFF3F04
:06360C00FF3FFF3FFF3FFE
:06361200FF3FFF3FFF3FF8
:06361800FF3FFF3FFF3FF2
:06361E00FF3FFF3FFF3FEC
:06362400FF3FFF3FFF3FE6
:06362A00FF3FFF3FFF3FE0
:06363000FF3FFF3FFF3FDA
:06363600FF3FFF3FFF3FD4
:06363C00FF3FFF3FFF3FCE
:06364200FF3FFF3FFF3FC8
:06364800FF3FFF3FFF3FC2
:06364E00FF3FFF3FFF3FBC
:06365400FF3FFF3FFF3FB6
:06365A00FF3FFF3FFF3FB0
:06366000FF3FFF3FFF3FAA
:06366600FF3FFF3FFF3FA4
:06366C00FF3FFF3FFF3F9E
:06367200FF3FFF3FFF3F98
:06367800FF3FFF3FFF3F92
:06367E00FF3FFF3FFF3F8C
:06368400FF3FFF3FFF3F86
:06368A00FF3FFF3FFF3F80
:06369000FF3FFF3FFF3F7A
:06369600FF3FFF3FFF3F74
:06369C00FF3FFF3FFF3F6E
:0636A200FF3FFF3FFF3F68
:0636A800FF3FFF3FFF3F62
:0636AE00FF3FFF3FFF3F5C
:0636B400FF3FFF3FFF3F56
:0636BA00FF3FFF3FFF3F50
:0636C000FF3FFF3FFF3F4A
:0636C600FF3FFF3FFF3F44
:0636CC00FF3FFF3FFF3F3E
:0636D200FF3FFF3FFF3F38
:0636D800FF3FFF3FFF3F32
:0636DE00FF3FFF3FFF3F2C
:0636E400FF3FFF3FFF3F26
:0636EA00FF3FFF3FFF3F20
:0636F000FF3FFF3FFF3F1A
:0636F600FF3FFF3FFF3F14
:0636FC00FF3FFF3FFF3F0E
:06370200FF3FFF3FFF3F07
:06370800FF3FFF3FFF3F01
:06370E00FF3FFF3FFF3FFB
:06371400FF3FFF3FFF3FF5
:06371A00FF3FFF3FFF3FEF
:06372000FF3FFF3FFF3FE9
:06372600FF3FFF3FFF3FE3
:06372C00FF3FFF3FFF3FDD
:06373200FF3FFF3FFF3FD7
:06373800FF3FFF3FFF3FD1
:06373E00FF3FFF3FFF3FCB
:06374400FF3FFF3FFF3FC5
:06374A00FF3FFF3FFF3FBF
:06375000FF3FFF3FFF3FB9
:06375600FF3FFF3FFF3FB3
:06375C00FF3FFF3FFF3FAD
:06376200FF3FFF3FFF3FA7
:06376800FF3FFF3FFF3FA1
:06376E00FF3FFF3FFF3F9B
:06377400FF3FFF3FFF3F95
:06377A00FF3FFF3FFF3F8F
:06378000FF3FFF3FFF3F89
:06378600FF3FFF3FFF3F83
:06378C00FF3FFF3FFF3F7D
:06379200FF3FFF3FFF3F77
:06379800FF3FFF3FFF3F71
:06379E00FF3FFF3FFF3F6B
:0637A400FF3FFF3FFF3F65
:0637AA00FF3FFF3FFF3F5F
:0637B000FF3FFF3FFF3F59
:0637B600FF3FFF3FFF3F53
:0637BC00FF3FFF3FFF3F4D
:0637C200FF3FFF3FFF3F47
:0637C800FF3FFF3FFF3F41
:0637CE00FF3FFF3FFF3F3B
:0637D400FF3FFF3FFF3F35
:0637DA00FF3FFF3FFF3F2F
:0637E000FF3FFF3FFF3F29
:0637E600FF3FFF3FFF3F23
:0637EC00FF3FFF3FFF3F1D
:0637F200FF3FFF3FFF3F17
:0637F800FF3FFF3FFF3F11
:0637FE00FF3FFF3FFF3F0B
:06380400FF3FFF3FFF3F04
:06380A00FF3FFF3FFF3FFE
:06381000FF3FFF3FFF3FF8
:06381600FF3FFF3FFF3FF2
:06381C00FF3FFF3FFF3FEC
:06382200FF3FFF3FFF3FE6
:06382800FF3FFF3FFF3FE0
:06382E00FF3FFF3FFF3FDA
:06383400FF3FFF3FFF3FD4
:06383A00FF3FFF3FFF3FCE
:06384000FF3FFF3FFF3FC8
:06384600FF3FFF3FFF3FC2
:06384C00FF3FFF3FFF3FBC
:06385200FF3FFF3FFF3FB6
:06385800FF3FFF3FFF3FB0
:06385E00FF3FFF3FFF3FAA
:06386400FF3FFF3FFF3FA4
:06386A00FF3FFF3FFF3F9E
:06387000FF3FFF3FFF3F98
:06387600FF3FFF3FFF3F92
:06387C00FF3FFF3FFF3F8C
:06388200FF3FFF3FFF3F86
:06388800FF3FFF3FFF3F80
:06388E00FF3FFF3FFF3F7A
:06389400FF3FFF3FFF3F74
:06389A00FF3FFF3FFF3F6E
:0638A000FF3FFF3FFF3F68
:0638A600FF3FFF3FFF3F62
:0638AC00FF3FFF3FFF3F5C
:0638B200FF3FFF3FFF3F56
:0638B800FF3FFF3FFF3F50
:0638BE00FF3FFF3FFF3F4A
:0638C400FF3FFF3FFF3F44
:0638CA00FF3FFF3FFF3F3E
:0638D000FF3FFF3FFF3F38
:0638D600FF3FFF3FFF3F32
:0638DC00FF3FFF3FFF3F2C
:0638E200FF3FFF3FFF3F26
:0638E800FF3FFF3FFF3F20
:0638EE00FF3FFF3FFF3F1A
:0638F400FF3FFF3FFF3F14
:0638FA00FF3FFF3FFF3F0E
:06390000FF3FFF3FFF3F07
:06390600FF3FFF3FFF3F01
:06390C00FF3FFF3FFF3FFB
:06391200FF3FFF3FFF3FF5
:06391800FF3FFF3FFF3FEF
:06391E00FF3FFF3FFF3FE9
:06392400FF3FFF3FFF3FE3
:06392A00FF3FFF3FFF3FDD
:06393000FF3FFF3FFF3FD7
:06393600FF3FFF3FFF3FD1
:06393C00FF3FFF3FFF3FCB
:06394200FF3FFF3FFF3FC5
:06394800FF3FFF3FFF3FBF
:06394E00FF3FFF3FFF3FB9
:06395400FF3FFF3FFF3FB3
:06395A00FF3FFF3FFF3FAD
:06396000FF3FFF3FFF3FA7
:06396600FF3FFF3FFF3FA1
:06396C00FF3FFF3FFF3F9B
:06397200FF3FFF3FFF3F95
:06397800FF3FFF3FFF3F8F
:06397E00FF3FFF3FFF3F89
:06398400FF3FFF3FFF3F83
:06398A00FF3FFF3FFF3F7D
:06399000FF3FFF3FFF3F77
:06399600FF3FFF3FFF3F71
:06399C00FF3FFF3FFF3F6B
:0639A200FF3FFF3FFF3F65
:0639A800FF3FFF3FFF3F5F
:0639AE00FF3FFF3FFF3F59
:0639B400FF3FFF3FFF3F53
:0639BA00FF3FFF3FFF3F4D
:0639C000FF3FFF3FFF3F47
:0639C600FF3FFF3FFF3F41
:0639CC00FF3FFF3FFF3F3B
:0639D200FF3FFF3FFF3F35
:0639D800FF3FFF3FFF3F2F
:0639DE00FF3FFF3FFF3F29
:0639E400FF3FFF3FFF3F23
:0639EA00FF3FFF3FFF3F1D
:0639F000FF3FFF3FFF3F17
:0639F600FF3FFF3FFF3F11
:0639FC00FF3FFF3FFF3F0B
:063A0200FF3FFF3FFF3F04
:063A0800FF3FFF3FFF3FFE
:063A0E00FF3FFF3FFF3FF8
:063A1400FF3FFF3FFF3FF2
:063A1A00FF3FFF3FFF3FEC
:063A2000FF3FFF3FFF3FE6
:063A2600FF3FFF3FFF3FE0
:063A2C00FF3FFF3FFF3FDA
:063A3200FF3FFF3FFF3FD4
:063A3800FF3FFF3FFF3FCE
:063A3E00FF3FFF3FFF3FC8
:063A4400FF3FFF3FFF3FC2
:063A4A00FF3FFF3FFF3FBC
:063A5000FF3FFF3FFF3FB6
:063A5600FF3FFF3FFF3FB0
:063A5C00FF3FFF3FFF3FAA
:063A6200FF3FFF3FFF3FA4
:063A6800FF3FFF3FFF3F9E
:063A6E00FF3FFF3FFF3F98
:063A7400FF3FFF3FFF3F92
:063A7A00FF3FFF3FFF3F8C
:063A8000FF3FFF3FFF3F86
:063A8600FF3FFF3FFF3F80
:063A8C00FF3FFF3FFF3F7A
:063A9200FF3FFF3FFF3F74
:063A9800FF3FFF3FFF3F6E
:063A9E00FF3FFF3FFF3F68
:063AA400FF3FFF3FFF3F62
:063AAA00FF3FFF3FFF3F5C
:063AB000FF3FFF3FFF3F56
:063AB600FF3FFF3FFF3F50
:063ABC00FF3FFF3FFF3F4A
:063AC200FF3FFF3FFF3F44
:063AC800FF3FFF3FFF3F3E
:063ACE00FF3FFF3FFF3F38
:063AD400FF3FFF3FFF3F32
:063ADA00FF3FFF3FFF3F2C
:063AE000FF3FFF3FFF3F26
:063AE600FF3FFF3FFF3F20
:063AEC00FF3FFF3FFF3F1A
:063AF200FF3FFF3FFF3F14
:063AF800FF3FFF3FFF3F0E
:063AFE00FF3FFF3FFF3F08
:063B0400FF3FFF3FFF3F01
:063B0A00FF3FFF3FFF3FFB
:063B1000FF3FFF3FFF3FF5
:063B1600FF3FFF3FFF3FEF
:063B1C00FF3FFF3FFF3FE9
:063B2200FF3FFF3FFF3FE3
:063B2800FF3FFF3FFF3FDD
:063B2E00FF3FFF3FFF3FD7
:063B3400FF3FFF3FFF3FD1
:063B3A00FF3FFF3FFF3FCB
:063B4000FF3FFF3FFF3FC5
:063B4600FF3FFF3FFF3FBF
:063B4C00FF3FFF3FFF3FB9
:063B5200FF3FFF3FFF3FB3
:063B5800FF3FFF3FFF3FAD
:063B5E00FF3FFF3FFF3FA7
:063B6400FF3FFF3FFF3FA1
:063B6A00FF3FFF3FFF3F9B
:063B7000FF3FFF3FFF3F95
:063B7600FF3FFF3FFF3F8F
:063B7C00FF3FFF3FFF3F89
:063B8200FF3FFF3FFF3F83
:063B8800FF3FFF3FFF3F7D
:063B8E00FF3FFF3FFF3F77
:063B9400FF3FFF3FFF3F71
:063B9A00FF3FFF3FFF3F6B
:063BA000FF3FFF3FFF3F65
:063BA600FF3FFF3FFF3F5F
:063BAC00FF3FFF3FFF3F59
:063BB200FF3FFF3FFF3F53
:063BB800FF3FFF3FFF3F4D
:063BBE00FF3FFF3FFF3F47
:063BC400FF3FFF3FFF3F41
:063BCA00FF3FFF3FFF3F3B
:063BD000FF3FFF3FFF3F35
:063BD600FF3FFF3FFF3F2F
:063BDC00FF3FFF3FFF3F29
:063BE200FF3FFF3FFF3F23
:063BE800FF3FFF3FFF3F1D
:063BEE00FF3FFF3FFF3F17
:063BF400FF3FFF3FFF3F11
:063BFA00FF3FFF3FFF3F0B
:063C0000FF3FFF3FFF3F04
:063C0600FF3FFF3FFF3FFE
:063C0C00FF3FFF3FFF3FF8
:063C1200FF3FFF3FFF3FF2
:063C1800FF3FFF3FFF3FEC
:063C1E00FF3FFF3FFF3FE6
:063C2400FF3FFF3FFF3FE0
:063C2A00FF3FFF3FFF3FDA
:063C3000FF3FFF3FFF3FD4
:063C3600FF3FFF3FFF3FCE
:063C3C00FF3FFF3FFF3FC8
:063C4200FF3FFF3FFF3FC2
:063C4800FF3FFF3FFF3FBC
:063C4E00FF3FFF3FFF3FB6
:063C5400FF3FFF3FFF3FB0
:063C5A00FF3FFF3FFF3FAA
:063C6000FF3FFF3FFF3FA4
:063C6600FF3FFF3FFF3F9E
:063C6C00FF3FFF3FFF3F98
:063C7200FF3FFF3FFF3F92
:063C7800FF3FFF3FFF3F8C
:063C7E00FF3FFF3FFF3F86
:063C8400FF3FFF3FFF3F80
:063C8A00FF3FFF3FFF3F7A
:063C9000FF3FFF3FFF3F74
:063C9600FF3FFF3FFF3F6E
:063C9C00FF3FFF3FFF3F68
:063CA200FF3FFF3FFF3F62
:063CA800FF3FFF3FFF3F5C
:063CAE00FF3FFF3FFF3F56
:063CB400FF3FFF3FFF3F50
:063CBA00FF3FFF3FFF3F4A
:063CC000FF3FFF3FFF3F44
:063CC600FF3FFF3FFF3F3E
:063CCC00FF3FFF3FFF3F38
:063CD200FF3FFF3FFF3F32
:063CD800FF3FFF3FFF3F2C
:063CDE00FF3FFF3FFF3F26
:063CE400FF3FFF3FFF3F20
:063CEA00FF3FFF3FFF3F1A
:063CF000FF3FFF3FFF3F14
:063CF600FF3FFF3FFF3F0E
:063CFC00FF3FFF3FFF3F08
:063D0200FF3FFF3FFF3F01
:063D0800FF3FFF3FFF3FFB
:063D0E00FF3FFF3FFF3FF5
:063D1400FF3FFF3FFF3FEF
:063D1A00FF3FFF3FFF3FE9
:063D2000FF3FFF3FFF3FE3
:063D2600FF3FFF3FFF3FDD
:063D2C00FF3FFF3FFF3FD7
:063D3200FF3FFF3FFF3FD1
:063D3800FF3FFF3FFF3FCB
:063D3E00FF3FFF3FFF3FC5
:063D4400FF3FFF3FFF3FBF
:063D4A00FF3FFF3FFF3FB9
:063D5000FF3FFF3FFF3FB3
:063D5600FF3FFF3FFF3FAD
:063D5C00FF3FFF3FFF3FA7
:063D6200FF3FFF3FFF3FA1
:063D6800FF3FFF3FFF3F9B
:063D6E00FF3FFF3FFF3F95
:063D7400FF3FFF3FFF3F8F
:063D7A00FF3FFF3FFF3F89
:063D8000FF3FFF3FFF3F83
:063D8600FF3FFF3FFF3F7D
:063D8C00FF3FFF3FFF3F77
:063D9200FF3FFF3FFF3F71
:063D9800FF3FFF3FFF3F6B
:063D9E00FF3FFF3FFF3F65
:063DA400FF3FFF3FFF3F5F
:063DAA00FF3FFF3FFF3F59
:063DB000FF3FFF3FFF3F53
:063DB600FF3FFF3FFF3F4D
:063DBC00FF3FFF3FFF3F47
:063DC200FF3FFF3FFF3F41
:063DC800FF3FFF3FFF3F3B
:063DCE00FF3FFF3FFF3F35
:063DD400FF3FFF3FFF3F2F
:063DDA00FF3FFF3FFF3F29
:063DE000FF3FFF3FFF3F23
:063DE600FF3FFF3FFF3F1D
:063DEC00FF3FFF3FFF3F17
:063DF200FF3FFF3FFF3F11
:063DF800FF3FFF3FFF3F0B
:063DFE00FF3FFF3FFF3F05
:063E0400FF3FFF3FFF3FFE
:063E0A00FF3FFF3FFF3FF8
:063E1000FF3FFF3FFF3FF2
:063E1600FF3FFF3FFF3FEC
:063E1C00FF3FFF3FFF3FE6
:063E2200FF3FFF3FFF3FE0
:063E2800FF3FFF3FFF3FDA
:063E2E00FF3FFF3FFF3FD4
:063E3400FF3FFF3FFF3FCE
:063E3A00FF3FFF3FFF3FC8
:063E4000FF3FFF3FFF3FC2
:063E4600FF3FFF3FFF3FBC
:063E4C00FF3FFF3FFF3FB6
:063E5200FF3FFF3FFF3FB0
:063E5800FF3FFF3FFF3FAA
:063E5E00FF3FFF3FFF3FA4
:063E6400FF3FFF3FFF3F9E
:063E6A00FF3FFF3FFF3F98
:063E7000FF3FFF3FFF3F92
:063E7600FF3FFF3FFF3F8C
