:020000000528D1
:0800080053288B018B138B1BA5
:100010000628532882073334333432342C340634E0
:100020000C340134023482071034E83464340A3466
:10003000820727340334003400348207FF34FD3450
:10004000FB34F734EF34DF34BF347F348207573466
:1000500041345634453446344F3452344D343A34B6
:10006000203482073F284928352820088207533446
:1000700049344E3445342034203420342034200890
:10008000820753345134553441345234453420348A
:1000900020342008820754345234493441344E34D9
:1000A00047344C344534831203138501860187019C
:1000B00088018901831685013F308600FF30870063
:1000C000CF3088000730890007309F0086308100DC
:1000D00083124021A101A60121080A206321A10A5F
:1000E000A11D6C284021A901A701B501B601B701E6
:1000F000B801B901B001B101B201B301B401AA0163
:10010000AB01AC01AD01AE01AF01C901CA01A8014B
:10011000A901CB01CD010030CC00B8221930CE00AE
:10012000FA30CF004E08BA000816081288160430BC
:10013000CB000B11172A0B1DA6280B110908031D54
:100140000F2A0618B322BA0BA628B528A8209B2888
:10015000071CAC2829140800291C08002910B70F17
:100160000800B80F0800B90A080088120000000053
:10017000A8200808C8000708C70088160310B90C93
:10018000B80CB70CB60C0310B90CB80CB70CB60C05
:100190000310B90CB80CB70CB60C0310B90CB80CA2
:1001A000B70CB60CC81835144819B514C81935154C
:1001B000471AB515471B3516C71BB516C71A35178D
:1001C000C719B517481836144719B614C718361585
:1001D0004718B615353096212A08C4003008C300E8
:1001E0003108C2003208C1003308B5003408B60037
:1001F000B701B801B901353096213208BD00310888
:10020000BE003008BF002A08C00049212616A801F8
:100210003D3084000830A0000008031D172928186D
:1002200017292008013A0319172920301A29281400
:100230000F3930386321840AA00B0C294D1C2A2960
:100240005C2126162E306321840300080F393038D4
:1002500063212C2920306321483063217A306321C7
:10026000B501B601B701B801B901A9014E084D1891
:100270004F08BA0008160812881681010B119B2836
:100280000730BB000B110B1D43290B11BB0B43297E
:1002900008005A21261646306321723063216530EA
:1002A0006321713063213A306321203063210800DB
:1002B00080306229C0306229CD30622994306229B1
:1002C000D43062292612A2003230BC00BC0B662951
:1002D0006921A20E22080F392604C500C601063086
:1002E000BC000310C50CC60DBC0B71294608850067
:1002F0000514051085160800A400240E0F39A3006C
:10030000063E831C86292308373E88292308303877
:10031000632124080F39A300063E831C9229230879
:10032000373E94292308303863210800FE21A301B9
:10033000A501B40133308400A00120081320AA02D3
:100340000318C2290130AB020318C2290130AC02E4
:100350000318C2290130AD020318C2290130AE02D0
:100360000318C22920081320AA07031CF229AB0A8C
:10037000031DF229AC0A031DF229AD0A031DF2295F
:10038000AE0AF22920081820AB020318D329013045
:10039000AC020318D3290130AD020318D329013070
:1003A000AE02031CD729A30F9D29A50A9D29200869
:1003B0001320AA07031CE629AB0A031DE629AC0A91
:1003C000031DE629AD0A031DE629AE0A2008182000
:1003D000AB07031CF229AC0A031DF229AD0A031D69
:1003E000F229AE0A2508031DB40023088000A301EA
:1003F000A5018403A00A201D9D290800840000088F
:10040000AA00840A0008AB00840A0008AC00840A31
:100410000008AD00840A0008AE00AF010800091909
:100420004E2AA0228918162A4B0A172A4B0307398D
:10043000CB005E2126164630632172306321653081
:100440006321713063212030632152306321613098
:1004500063216E3063216730632165306321203072
:1004600063214B08073C303863210608C0398600F9
:10047000081388134B081D203F398316860083120A
:100480004B081D20C0390F38831688008312402185
:10049000402109080339031D0F2A512ACD0ACD1026
:1004A000A022B501B601B701B801B901A9016021C7
:1004B0002616433063216F306321753063216E301F
:1004C000632174306321203063215430632169300B
:1004D00063216D306321653063213A306321203020
:1004E00063213130632120304D1830306321733067
:1004F0006321653063216330632109080739031DD7
:100500007D2A492126162030632120306321433083
:1005100063214F306321553063214E3063215430C5
:100520006321493063214E306321473063212030FD
:1005300063214E084D184F08BA00081608129B2870
:100540004921261620306321203063214F3063215A
:100550004B3063210630A00020306321A00BAC2A71
:10056000303063210800CC0A4C08033A0319CC014F
:1005700058212616A101210826206321A10AA11DC8
:10058000BB2AA11CBB2AA0014C0831206321A00A70
:10059000A01DC42A4C0EA200A20D220DC039A2003B
:1005A00006083F39220486000618D42A4021080094
:02400E00313F40
:00000001FF
