:020000040000FA
:020000000728CF
:0800080005288B0109008A158F
:100010000A129D281B20F70000308A007708003E56
:1000200003190800990098308400801C1528FC0FE3
:100030000A28FB0A0A287B088A007C08820008003C
:10004000BD0130300002BF00093003182A288A1190
:100050000A1254283F08BD070310BD0D0310BD0D43
:100060000310BD0D3F08BD07BD07840A30300002F4
:10007000BF000930031C54283F08BD073D08BF00DE
:100080000310BD0D0310BD0D0310BD0D3F08BD07CE
:10009000BD07840A30300002BF000930031C542819
:1000A0003F08BD0784010800FF3084000800C0013C
:1000B0008C1E58281A08C100C1000D3C0319732872
:1000C000540803194108990041080A3C03195828AB
:1000D00042304007840041088000C00A40080E3CBE
:1000E000031D58285728423040078400800108002B
:1000F000990098308400801C7B2808000408F700D1
:100100000008031908007820F70A7708840080287F
:10011000D200520E0F39303E800052080F39303E67
:10012000840A80000800F81F9E282D30F000F8098E
:10013000F9090130F9070318F80AA0282030F00067
:10014000F701A328F70A1030F902760D283CF802CF
:100150000318A2287708F1000A30F700F703E83007
:10016000F907760D033EF807031CAE287708F20066
:10017000F7016430BC28F70AF9020318BB28F8031A
:10018000F81FBB287708F3000A30F700F703F907D8
:10019000031CC6287708F4007908F5003030F10711
:1001A000F207F307F407F507080035305507840018
:1001B0000008F70029305507840000080A3C031D99
:1001C000E7287718E52806300629093006290008AF
:1001D000063C031DF1287718EF28053006290A3060
:1001E00006290008053C031DFB287718F92809306B
:1001F0000629063006290008093C031D0529771841
:1002000003290A300629053006290A308000080033
:1002100074087207F900F90D730E7307F907710D71
:100220007207F800F90DF80D720EF902031CF803BD
:10023000730E7407F9070318F80A710E7507F90DA4
:10024000F80DF9070318F80A7108F802710EF8079B
:10025000F8070800D030F107F207F307F407F507B5
:1002600008290130FB003B30FC008A110A120A20E9
:1002700001308A0040290D340A34243420340034FB
:1002800057200D308A110A1278200A308A110A127A
:10029000782001308A004D3042020319C42C4330CB
:1002A00042020319D229533042020319142A4C3056
:1002B00042020319492A4830420203199D29443059
:1002C00042020319BA29563042020319C6294230A4
:1002D00042020319352E3F30420203198F2E463059
:1002E000420203199A29423084008A110A127E20A0
:1002F00001308A000130FB008430FC008A110A12B0
:100300000A2001308A00312920342D342034493428
:100310006E34763461346C3469346434203443345C
:100320006F346D346D3461346E34643421340D3483
:100330000A3400348A150A12EA2830304402BF0019
:10034000013C031C732958304302BE00023C031CCD
:100350007329263084003E0884073F088000281C4B
:1003600085012618B5290F3088052718B929F030DE
:100370008805312930304302BF00013C031C73293A
:100380003F08B800091038180914312930304302E9
:10039000BF00013C031C73293F08B90089103918BC
:1003A0008914312958304302BE00023C031C7329D2
:1003B0000310BE0D2C3084003E088407F901F801BB
:1003C00044083D3C031D0E2AF00145082D3C031D49
:1003D000EB297014FA2945082B3C0319FA29450822
:1003E000F1004608F2004708F3004808F400490805
:1003F000F500042A4608F1004708F2004808F30017
:100400004908F4004A08F5008A110A122A21701CD2
:100410000E2AF909F809F90A0319F80A7808800080
:10042000840A790880003129463084008A110A1232
:1004300020200418732958304402BE00023C031CDB
:1004400073294308BF0049303F02031D2A2A233085
:100450008400302A44303F02031D73292030840079
:100460003E0884074508BF003D303F02031D3B2A7C
:100470003D08800031292B303F02031D422A3D08F0
:10048000800731292D303F02031D73293D0880026A
:100490003129D5010330550203180E2B583055076A
:1004A0008A110A12782002308A000230FB00613083
:1004B000FC008A110A120A2002308A008A110A12EC
:1004C000732A203441347834693473343A34203414
:1004D0004C346F3463346134743469346F346E3443
:1004E0003A3420340034550884000310840D2C3035
:1004F00084070008F800840A0008F9008A110A122B
:100500009320703084008A110A127E200230FB0092
:100510009230FC008A110A120A2002308A008A11E5
:100520000A129C2A20342034443465346C346134FB
:1005300079343A342034003420308400550884075C
:10054000F8010008F9008A110A12A0207330840013
:100550008A110A127E200230FB00B730FC008A119B
:100560000A120A2002308A008A110A12CA2A20348A
:10057000203453347434653470347334203470341C
:1005800065347234203449346E34633468343A3418
:10059000203400342330840055088407F801000813
:1005A000F9008A110A12A020733084008A110A12FD
:1005B0007E200230FB00E530FC008A110A120A207E
:1005C00002308A008A110A12F92A20342034483471
:1005D0006F346C34643469346E346734203443349B
:1005E00075347234723465346E3474343A34203471
:1005F00000342630840055088407303000078A1103
:100600000A1278200D308A110A1278200A308A11D5
:100610000A127820D50A8A110A124A2A0330FB00EE
:100620001830FC008A110A120A2003308A001F2B9E
:100630004434723469346C346C343D3400343030BA
:1006400038078A110A1278200330FB003030FC0092
:100650008A110A120A2003308A008A110A123A2BE0
:100660000D340A34563461346334753475346D3462
:100670003D340034303039078A110A1278200330B3
:10068000FB004B30FC008A110A120A2003308A005A
:100690008A110A125C2B0D340A344C3469346D34DF
:1006A00069347434203453347734693474346334A3
:1006B00068343A342034003458308A110A127820D1
:1006C0000330FB006C30FC008A110A120A20033050
:1006D0008A008A110A12772B2D34613478346934F8
:1006E000733420346D3469346E343D34003430302A
:1006F000071C31308A110A1278200330FB00893040
:10070000FC008A110A120A2003308A008A110A1298
:100710008F2B20346D34613478343D3400343030E4
:10072000871C31308A110A1278200330FB004B30CD
:10073000FC008A110A120A2003308A0059308A11FB
:100740000A1278200330FB006C30FC008A110A1278
:100750000A2003308A003030071D31308A110A1216
:1007600078200330FB008930FC008A110A120A202D
:1007700003308A003030871E31308A110A12782007
:100780000330FB004B30FC008A110A120A200330B0
:100790008A005A308A110A1278200330FB006C302C
:1007A000FC008A110A120A2003308A003030051E2C
:1007B00031308A110A1278200330FB008930FC00A6
:1007C0008A110A120A2003308A003030851E313027
:1007D0008A110A1278208A110A123129571403301B
:1007E000FB00FB30FC008A110A120A2003308A0049
:1007F0008A110A127A2C55347334653420347434D7
:1008000068346534203466346F346C346C346F343F
:10081000773469346E34673420346D346F34743413
:1008200069346F346E3420346B3465347934733406
:100830003A340D340A340D340A342034203451341F
:1008400028345A342B342934203420345734283473
:1008500059342B3429340D340A34203420344134B3
:10086000283458342D342934203420345334283457
:10087000533474346F3470342934203420342034A9
:100880004434283458342B3429340D340A34203479
:1008900020345A3428345A342D3429342034203426
:1008A0005834283459342D3429340D340A340D3455
:1008B0000A345034723465347334733420343C3425
:1008C000733470343E34203474346F3420346534DF
:1008D00078346934743420346D3461346E34753452
:1008E00061346C3420346D346F34643465340D34C9
:1008F0000A340034981C7E2C181218168C1E7A2C80
:100900001A08C100B201B301B40153304102031906
:100910007A2C513041020319A62C5A304102031996
:10092000AB2C573041020319B02C58304102031947
:10093000B52C413041020319BF2C44304102031948
:10094000BA2C20304102031931297A2C0030B7002B
:100950002508B400182D0130B7002508B400182D63
:100960000030B6002408B300182D0130B60024086A
:10097000B300182D0030B5002308B200182D013047
:10098000B5002308B200182DB201B301B401B501BE
:10099000B601B701D7014E3043020319EE2B4530A3
:1009A00084008A110A122020041873295830430247
:1009B000BE00023C031C732935303E078400440806
:1009C000BF002B303F02031DE72C8001ED2C2D30A2
:1009D0003F02031D73290130800032303E0784003E
:1009E0003D088000C8080319182D4A3084008A1178
:1009F0000A1220200418732958304802BE00023C15
:100A0000031C732935303E0784004908BF002B3092
:100A10003F02031D0D2D8001132D2D303F02031DBC
:100A200073290130800032303E0784003D08800089
:100A3000320833020318232DFF30DC003308DB00BB
:100A40003208DA00282DDC013208DB003308DA0036
:100A5000D9015A08D8000310D80CBA01D601DD011B
:100A6000DE01B208031D372DB30803194E2D0030E7
:100A7000F7005B08D8027708031C770FD902D91B4F
:100A8000462D5C08DD00DE00DE094E2D5A08D80731
:100A90000318D90AFF30DD00DE004E2DDD080319F2
:100AA000702DB2080319702DB203561457185C2D1F
:100AB00078308A110A1278203518632D0130AD077D
:100AC0000318AC0A672D0130AD02031CAC030030E3
:100AD000D5008A110A12D52005308A002008BA00F4
:100AE0005E080319962DB3080319962DB303561407
:100AF00057187E2D79308A110A1278203618852DE4
:100B00000130AF070318AE0A892D0130AF02031C74
:100B1000AE030130D5008A110A12D52005308A00B3
:100B200021083A020318962D2108BA003408031947
:100B3000B92DB40356155718A12D7A308A110A120F
:100B400078203718A82D0130B1070318B00AAC2D52
:100B50000130B102031CB0030230D5008A110A1221
:100B6000D52005308A0022083A020318B92D220840
:100B7000BA00D6080319322E561DC02D2B08850049
:100B8000561CC82D2908BF00BF0E2A083F04880044
:100B9000BA080319D62DCF25BA0BCB2DD62DC830C8
:100BA000BB0000000000BB0BD12D0800281C8501F4
:100BB0002618DC2D0F30880527180B2EF0308805FD
:100BC0008C1E0B2E5718802C1A08C1000530FB0014
:100BD000F230FC008A110A120A2005308A008A11BC
:100BE0000A12322E0D340A34533445345234493407
:100BF00041344C3420345234453443344534493440
:100C0000563445342034413442344F345234543411
:100C10000D340A340034071C182E871C182E071DAB
:100C2000182E871E182E051E182E851E182E2D2DE7
:100C30000630FB002230FC008A110A120A2006301E
:100C40008A00322E0D340A344C3449344D34493440
:100C5000543420344534523452344F3452340D34E9
:100C60000A34003457187A2C31290930F7008312DE
:100C7000031726308D00203084008B13831203135A
:100C80000008831203178C00831203130D128316BE
:100C900003178C130C1555308D00AA308D008C1461
:100CA0000C11831203130D1E532E840A8312031793
:100CB0008D0AF70B3E2E8312031331294230840034
:100CC0008A110A127E200630FB006D30FC008A116A
:100CD0000A120A2006308A008F2E20342D34203448
:100CE00043346F346D346D3461346E346434203485
:100CF0006E346F347434203469346D3470346C3431
:100D000065346D3465346E34743465346434203441
:100D100079346534743421340D340A3400340630A7
:100D2000FB009B30FC008A110A120A2006308A0060
:100D30008A110A12312943346F346D346D346134B1
:100D40006E34643473343A340D340A3420344D3400
:100D50004E343C34633472343E3420343D342034D9
:100D60004D3461346E34753461346C342034433422
:100D70006F346E34743472346F346C340D340A341E
:100D800020344D3478342B346E346E346E345B340E
:100D900079342B346D346D346D345D343C346334CC
:100DA00072343E3420343D3420344D346F34763444
:100DB00065342034613478346934733420347834C1
:100DC00020342B342F342D3420346E346E346E3472
:100DD0002034733474346534703473340D340A340D
:100DE0002034433478345B343D342B346E346E34E9
:100DF0006E346E346E345D343C34633472343E345D
:100E000020343D342034433461346C3469346234EA
:100E10007234613474346534203461347834693424
:100E20007334203478342034283472346534733485
:100E300065347434203474346F34203430342034C6
:100E40006F347234203473347034653463346934ED
:100E500066346934653464342034763461346C34F7
:100E60007534653429340D340A3420345334443411
:100E700078342B346E346E346E343C3463347234D4
:100E80003E3420343D3420345334653474342034BB
:100E9000443465346C3461347934203466346F34CE
:100EA00072342034613478346934733420347834C3
:100EB00020342B342F342D342F343D3420346E34F1
:100EC0006E346E342034643465346C346134793477
:100ED0000D340A3420345334493478343D346E347C
:100EE0006E346E343C34633472343E3420343D34DA
:100EF0002034533465347434203449346E346334CC
:100F000068342034733469347A34653420346F346F
:100F10006E34203461347834693473342034783456
:100F2000203474346F3420346E346E346E34203494
:100F3000733474346534703473340D340A342034AB
:100F40004C343C34633472343E3420343D342034E9
:100F50004C346934733474347334203463347534EA
:100F60007234723465346E347434203473346534BE
:100F70007434743469346E346734733420346134B7
:100F80006E34643420346C346F34633461347434BC
:100F900069346F346E340D340A3420344834783474
:100FA000303420343D34203448346F346C3464346D
:100FB00069346E3467342034633475347234723477
:100FC00065346E347434203466346F3472342034B3
:100FD00061347834693473342034783420344F34B5
:100FE00066346634203428343034293420346F3465
:100FF000723420344F346E34203428343134293460
:101000000D340A342034443430343C346334723484
:101010003E3420343D3420344434723469346C34EA
:101020006C3420344F346634663420342834303401
:10103000293420346F34723420344F346E342034E9
:101040002834313429340D340A34203456343034C1
:101050003C34633472343E3420343D3420345634CE
:1010600061346334753475346D3420344F346634F0
:101070006634203428343034293420346F347234C8
:1010800020344F346E3420342834313429340D3434
:101090000A34203442343C34633472343E342034D5
:1010A0003D3420344234613463346B3475347034ED
:1010B000203473347434613472347434753470345D
:1010C000203463346F346E346634693467340D34DD
:1010D0000A342034463420343D34203446346934D4
:1010E00072346D347734613472346534203456345C
:1010F00065347234733469346F346E340D340A34A9
:1011000020343F343C34633472343E3420343D3434
:101110002034443475346D3470342034743468347D
:101120006934733420346D3465347334733461340A
:10113000673465340D340A340034F6018316031322
:101140008030810030308500FF308600FF3087001E
:1011500000308800043089008C018D0106309F002A
:10116000831203138B018C018D019F018501860180
:10117000870188018901831203137F3084000830BE
:101180008A00800184030408203C031DC128093023
:10119000F7008312031726308D0020308400831659
:1011A00003178C130C14831203170C088000840A95
:1011B0008D0AF70BCF28831603139801181598167C
:1011C000831603130C309900831203139817181613
:1011D000831203130930FB000D30FC008A110A1240
:1011E0000A2008308A00831603138E1C04290E1867
:1011F0000429831203130930FB002730FC008A11F5
:101200000A120A2009308A00831603130E148E1462
:10121000831203138A110A1231290D340A34563409
:1012200069346E3463346534273473342034433482
:101230004E34433420344D3449344C344C3420340F
:10124000563431342E3431340D340A3400340D34F4
:101250000A34423452344F3457344E344F345534B8
:1012600054342034523445345334453454340D34DA
:041270000A34003408
:02400E00F13F80
:10420000560069006E0063006500730020004300E3
:104210004E00430020004D0069006C006C0020003F
:10422000560031002E00310020002D0020005600E5
:1042300069006E00630065006E0074002000470096
:104240007200650065006E00650000001E001E0023
:0E4250000F00F000F000E6000000000000008B
:00000001FF
